{
	"contracts/04IntegerToRoman.sol": {
		"IntegerToRoman": {
			"abi": [
				{
					"inputs": [
						{
							"internalType": "uint256",
							"name": "num",
							"type": "uint256"
						}
					],
					"name": "intToRoman",
					"outputs": [
						{
							"internalType": "string",
							"name": "",
							"type": "string"
						}
					],
					"stateMutability": "pure",
					"type": "function"
				}
			],
			"devdoc": {
				"details": "实现将整数转换为罗马数字的功能。 罗马数字由七个不同符号表示，对应的值分别为： I - 1, V - 5, X - 10, L - 50, C - 100, D - 500, M - 1000。 转换规则如下： 1. 若值不以 4 或 9 开头，选择能从输入中减去的最大符号值，将该符号添加到结果，减去对应值后继续转换剩余部分。 2. 若值以 4 或 9 开头，使用减法形式，仅包含 4 (IV), 9 (IX), 40 (XL), 90 (XC), 400 (CD), 900 (CM)。 3. 只有 10 的次方（I, X, C, M）最多可连续附加 3 次，不能多次附加 5 (V), 50 (L), 500 (D)，需附加 4 次时用减法形式。",
				"kind": "dev",
				"methods": {
					"intToRoman(uint256)": {
						"details": "将输入的整数转换为对应的罗马数字。",
						"params": {
							"num": "要转换的整数，范围通常为 1 到 3999。"
						},
						"returns": {
							"_0": "转换后的罗马数字字符串。"
						}
					}
				},
				"title": "IntegerToRoman",
				"version": 1
			},
			"evm": {
				"assembly": "    /* \"contracts/04IntegerToRoman.sol\":967:3222  contract IntegerToRoman {... */\n  mstore(0x40, 0x80)\n  callvalue\n  dup1\n  iszero\n  tag_1\n  jumpi\n  revert(0x00, 0x00)\ntag_1:\n  pop\n  dataSize(sub_0)\n  dup1\n  dataOffset(sub_0)\n  0x00\n  codecopy\n  0x00\n  return\nstop\n\nsub_0: assembly {\n        /* \"contracts/04IntegerToRoman.sol\":967:3222  contract IntegerToRoman {... */\n      mstore(0x40, 0x80)\n      callvalue\n      dup1\n      iszero\n      tag_1\n      jumpi\n      revert(0x00, 0x00)\n    tag_1:\n      pop\n      jumpi(tag_2, lt(calldatasize, 0x04))\n      shr(0xe0, calldataload(0x00))\n      dup1\n      0x0cbc513a\n      eq\n      tag_3\n      jumpi\n    tag_2:\n      revert(0x00, 0x00)\n        /* \"contracts/04IntegerToRoman.sol\":1204:3219  function intToRoman(uint256 num) external pure returns (string memory) {... */\n    tag_3:\n      tag_4\n      0x04\n      dup1\n      calldatasize\n      sub\n      dup2\n      add\n      swap1\n      tag_5\n      swap2\n      swap1\n      tag_6\n      jump\t// in\n    tag_5:\n      tag_7\n      jump\t// in\n    tag_4:\n      mload(0x40)\n      tag_8\n      swap2\n      swap1\n      tag_9\n      jump\t// in\n    tag_8:\n      mload(0x40)\n      dup1\n      swap2\n      sub\n      swap1\n      return\n    tag_7:\n        /* \"contracts/04IntegerToRoman.sol\":1260:1273  string memory */\n      0x60\n        /* \"contracts/04IntegerToRoman.sol\":1329:1359  string[13] memory romanSymbols */\n      0x00\n        /* \"contracts/04IntegerToRoman.sol\":1329:1613  string[13] memory romanSymbols = [... */\n      mload(0x40)\n      dup1\n      0x01a0\n      add\n      0x40\n      mstore\n      dup1\n      mload(0x40)\n      dup1\n      0x40\n      add\n      0x40\n      mstore\n      dup1\n      0x01\n      dup2\n      mstore\n      0x20\n      add\n      0x4d00000000000000000000000000000000000000000000000000000000000000\n      dup2\n      mstore\n      pop\n      dup2\n      mstore\n      0x20\n      add\n      mload(0x40)\n      dup1\n      0x40\n      add\n      0x40\n      mstore\n      dup1\n      0x02\n      dup2\n      mstore\n      0x20\n      add\n      0x434d000000000000000000000000000000000000000000000000000000000000\n      dup2\n      mstore\n      pop\n      dup2\n      mstore\n      0x20\n      add\n      mload(0x40)\n      dup1\n      0x40\n      add\n      0x40\n      mstore\n      dup1\n      0x01\n      dup2\n      mstore\n      0x20\n      add\n      0x4400000000000000000000000000000000000000000000000000000000000000\n      dup2\n      mstore\n      pop\n      dup2\n      mstore\n      0x20\n      add\n      mload(0x40)\n      dup1\n      0x40\n      add\n      0x40\n      mstore\n      dup1\n      0x02\n      dup2\n      mstore\n      0x20\n      add\n      0x4344000000000000000000000000000000000000000000000000000000000000\n      dup2\n      mstore\n      pop\n      dup2\n      mstore\n      0x20\n      add\n      mload(0x40)\n      dup1\n      0x40\n      add\n      0x40\n      mstore\n      dup1\n      0x01\n      dup2\n      mstore\n      0x20\n      add\n      0x4300000000000000000000000000000000000000000000000000000000000000\n      dup2\n      mstore\n      pop\n      dup2\n      mstore\n      0x20\n      add\n      mload(0x40)\n      dup1\n      0x40\n      add\n      0x40\n      mstore\n      dup1\n      0x02\n      dup2\n      mstore\n      0x20\n      add\n      0x5843000000000000000000000000000000000000000000000000000000000000\n      dup2\n      mstore\n      pop\n      dup2\n      mstore\n      0x20\n      add\n      mload(0x40)\n      dup1\n      0x40\n      add\n      0x40\n      mstore\n      dup1\n      0x01\n      dup2\n      mstore\n      0x20\n      add\n      0x4c00000000000000000000000000000000000000000000000000000000000000\n      dup2\n      mstore\n      pop\n      dup2\n      mstore\n      0x20\n      add\n      mload(0x40)\n      dup1\n      0x40\n      add\n      0x40\n      mstore\n      dup1\n      0x02\n      dup2\n      mstore\n      0x20\n      add\n      0x584c000000000000000000000000000000000000000000000000000000000000\n      dup2\n      mstore\n      pop\n      dup2\n      mstore\n      0x20\n      add\n      mload(0x40)\n      dup1\n      0x40\n      add\n      0x40\n      mstore\n      dup1\n      0x01\n      dup2\n      mstore\n      0x20\n      add\n      0x5800000000000000000000000000000000000000000000000000000000000000\n      dup2\n      mstore\n      pop\n      dup2\n      mstore\n      0x20\n      add\n      mload(0x40)\n      dup1\n      0x40\n      add\n      0x40\n      mstore\n      dup1\n      0x02\n      dup2\n      mstore\n      0x20\n      add\n      0x4958000000000000000000000000000000000000000000000000000000000000\n      dup2\n      mstore\n      pop\n      dup2\n      mstore\n      0x20\n      add\n      mload(0x40)\n      dup1\n      0x40\n      add\n      0x40\n      mstore\n      dup1\n      0x01\n      dup2\n      mstore\n      0x20\n      add\n      0x5600000000000000000000000000000000000000000000000000000000000000\n      dup2\n      mstore\n      pop\n      dup2\n      mstore\n      0x20\n      add\n      mload(0x40)\n      dup1\n      0x40\n      add\n      0x40\n      mstore\n      dup1\n      0x02\n      dup2\n      mstore\n      0x20\n      add\n      0x4956000000000000000000000000000000000000000000000000000000000000\n      dup2\n      mstore\n      pop\n      dup2\n      mstore\n      0x20\n      add\n      mload(0x40)\n      dup1\n      0x40\n      add\n      0x40\n      mstore\n      dup1\n      0x01\n      dup2\n      mstore\n      0x20\n      add\n      0x4900000000000000000000000000000000000000000000000000000000000000\n      dup2\n      mstore\n      pop\n      dup2\n      mstore\n      pop\n      swap1\n      pop\n        /* \"contracts/04IntegerToRoman.sol\":1688:1713  uint256[13] memory values */\n      0x00\n        /* \"contracts/04IntegerToRoman.sol\":1688:2067  uint256[13] memory values = [... */\n      mload(0x40)\n      dup1\n      0x01a0\n      add\n      0x40\n      mstore\n      dup1\n        /* \"contracts/04IntegerToRoman.sol\":1739:1743  1000 */\n      0x03e8\n        /* \"contracts/04IntegerToRoman.sol\":1688:2067  uint256[13] memory values = [... */\n      dup2\n      mstore\n      0x20\n      add\n        /* \"contracts/04IntegerToRoman.sol\":1767:1770  900 */\n      0x0384\n        /* \"contracts/04IntegerToRoman.sol\":1688:2067  uint256[13] memory values = [... */\n      dup2\n      mstore\n      0x20\n      add\n        /* \"contracts/04IntegerToRoman.sol\":1794:1797  500 */\n      0x01f4\n        /* \"contracts/04IntegerToRoman.sol\":1688:2067  uint256[13] memory values = [... */\n      dup2\n      mstore\n      0x20\n      add\n        /* \"contracts/04IntegerToRoman.sol\":1821:1824  400 */\n      0x0190\n        /* \"contracts/04IntegerToRoman.sol\":1688:2067  uint256[13] memory values = [... */\n      dup2\n      mstore\n      0x20\n      add\n        /* \"contracts/04IntegerToRoman.sol\":1848:1851  100 */\n      0x64\n        /* \"contracts/04IntegerToRoman.sol\":1688:2067  uint256[13] memory values = [... */\n      dup2\n      mstore\n      0x20\n      add\n        /* \"contracts/04IntegerToRoman.sol\":1875:1877  90 */\n      0x5a\n        /* \"contracts/04IntegerToRoman.sol\":1688:2067  uint256[13] memory values = [... */\n      dup2\n      mstore\n      0x20\n      add\n        /* \"contracts/04IntegerToRoman.sol\":1901:1903  50 */\n      0x32\n        /* \"contracts/04IntegerToRoman.sol\":1688:2067  uint256[13] memory values = [... */\n      dup2\n      mstore\n      0x20\n      add\n        /* \"contracts/04IntegerToRoman.sol\":1927:1929  40 */\n      0x28\n        /* \"contracts/04IntegerToRoman.sol\":1688:2067  uint256[13] memory values = [... */\n      dup2\n      mstore\n      0x20\n      add\n        /* \"contracts/04IntegerToRoman.sol\":1953:1955  10 */\n      0x0a\n        /* \"contracts/04IntegerToRoman.sol\":1688:2067  uint256[13] memory values = [... */\n      dup2\n      mstore\n      0x20\n      add\n        /* \"contracts/04IntegerToRoman.sol\":1979:1980  9 */\n      0x09\n        /* \"contracts/04IntegerToRoman.sol\":1688:2067  uint256[13] memory values = [... */\n      dup2\n      mstore\n      0x20\n      add\n        /* \"contracts/04IntegerToRoman.sol\":2004:2005  5 */\n      0x05\n        /* \"contracts/04IntegerToRoman.sol\":1688:2067  uint256[13] memory values = [... */\n      dup2\n      mstore\n      0x20\n      add\n        /* \"contracts/04IntegerToRoman.sol\":2029:2030  4 */\n      0x04\n        /* \"contracts/04IntegerToRoman.sol\":1688:2067  uint256[13] memory values = [... */\n      dup2\n      mstore\n      0x20\n      add\n        /* \"contracts/04IntegerToRoman.sol\":2054:2055  1 */\n      0x01\n        /* \"contracts/04IntegerToRoman.sol\":1688:2067  uint256[13] memory values = [... */\n      dup2\n      mstore\n      pop\n      swap1\n      pop\n        /* \"contracts/04IntegerToRoman.sol\":2170:2189  bytes memory result */\n      0x00\n        /* \"contracts/04IntegerToRoman.sol\":2202:2205  100 */\n      0x64\n        /* \"contracts/04IntegerToRoman.sol\":2192:2206  new bytes(100) */\n      0xffffffffffffffff\n      dup2\n      gt\n      iszero\n      tag_11\n      jumpi\n      tag_12\n      tag_13\n      jump\t// in\n    tag_12:\n    tag_11:\n      mload(0x40)\n      swap1\n      dup1\n      dup3\n      mstore\n      dup1\n      0x1f\n      add\n      not(0x1f)\n      and\n      0x20\n      add\n      dup3\n      add\n      0x40\n      mstore\n      dup1\n      iszero\n      tag_14\n      jumpi\n      dup2\n      0x20\n      add\n      0x01\n      dup3\n      mul\n      dup1\n      calldatasize\n      dup4\n      calldatacopy\n      dup1\n      dup3\n      add\n      swap2\n      pop\n      pop\n      swap1\n      pop\n    tag_14:\n      pop\n        /* \"contracts/04IntegerToRoman.sol\":2170:2206  bytes memory result = new bytes(100) */\n      swap1\n      pop\n        /* \"contracts/04IntegerToRoman.sol\":2263:2276  uint256 index */\n      0x00\n        /* \"contracts/04IntegerToRoman.sol\":2279:2280  0 */\n      0x00\n        /* \"contracts/04IntegerToRoman.sol\":2263:2280  uint256 index = 0 */\n      swap1\n      pop\n        /* \"contracts/04IntegerToRoman.sol\":2332:2341  uint256 i */\n      0x00\n        /* \"contracts/04IntegerToRoman.sol\":2344:2345  0 */\n      0x00\n        /* \"contracts/04IntegerToRoman.sol\":2332:2345  uint256 i = 0 */\n      swap1\n      pop\n        /* \"contracts/04IntegerToRoman.sol\":2327:2944  for (uint256 i = 0; i < values.length; i++) {... */\n    tag_15:\n        /* \"contracts/04IntegerToRoman.sol\":2351:2364  values.length */\n      0x0d\n        /* \"contracts/04IntegerToRoman.sol\":2347:2348  i */\n      dup2\n        /* \"contracts/04IntegerToRoman.sol\":2347:2364  i < values.length */\n      lt\n        /* \"contracts/04IntegerToRoman.sol\":2327:2944  for (uint256 i = 0; i < values.length; i++) {... */\n      iszero\n      tag_16\n      jumpi\n        /* \"contracts/04IntegerToRoman.sol\":2451:2933  while (values[i] <= num) {... */\n    tag_18:\n        /* \"contracts/04IntegerToRoman.sol\":2471:2474  num */\n      dup7\n        /* \"contracts/04IntegerToRoman.sol\":2458:2464  values */\n      dup5\n        /* \"contracts/04IntegerToRoman.sol\":2465:2466  i */\n      dup3\n        /* \"contracts/04IntegerToRoman.sol\":2458:2467  values[i] */\n      0x0d\n      dup2\n      lt\n      tag_20\n      jumpi\n      tag_21\n      tag_22\n      jump\t// in\n    tag_21:\n    tag_20:\n      0x20\n      mul\n      add\n      mload\n        /* \"contracts/04IntegerToRoman.sol\":2458:2474  values[i] <= num */\n      gt\n        /* \"contracts/04IntegerToRoman.sol\":2451:2933  while (values[i] <= num) {... */\n      tag_19\n      jumpi\n        /* \"contracts/04IntegerToRoman.sol\":2546:2565  bytes memory symbol */\n      0x00\n        /* \"contracts/04IntegerToRoman.sol\":2574:2586  romanSymbols */\n      dup6\n        /* \"contracts/04IntegerToRoman.sol\":2587:2588  i */\n      dup3\n        /* \"contracts/04IntegerToRoman.sol\":2574:2589  romanSymbols[i] */\n      0x0d\n      dup2\n      lt\n      tag_23\n      jumpi\n      tag_24\n      tag_22\n      jump\t// in\n    tag_24:\n    tag_23:\n      0x20\n      mul\n      add\n      mload\n        /* \"contracts/04IntegerToRoman.sol\":2546:2590  bytes memory symbol = bytes(romanSymbols[i]) */\n      swap1\n      pop\n        /* \"contracts/04IntegerToRoman.sol\":2686:2695  uint256 j */\n      0x00\n        /* \"contracts/04IntegerToRoman.sol\":2698:2699  0 */\n      0x00\n        /* \"contracts/04IntegerToRoman.sol\":2686:2699  uint256 j = 0 */\n      swap1\n      pop\n        /* \"contracts/04IntegerToRoman.sol\":2681:2823  for (uint256 j = 0; j < symbol.length; j++) {... */\n    tag_25:\n        /* \"contracts/04IntegerToRoman.sol\":2705:2711  symbol */\n      dup2\n        /* \"contracts/04IntegerToRoman.sol\":2705:2718  symbol.length */\n      mload\n        /* \"contracts/04IntegerToRoman.sol\":2701:2702  j */\n      dup2\n        /* \"contracts/04IntegerToRoman.sol\":2701:2718  j < symbol.length */\n      lt\n        /* \"contracts/04IntegerToRoman.sol\":2681:2823  for (uint256 j = 0; j < symbol.length; j++) {... */\n      iszero\n      tag_26\n      jumpi\n        /* \"contracts/04IntegerToRoman.sol\":2764:2770  symbol */\n      dup2\n        /* \"contracts/04IntegerToRoman.sol\":2771:2772  j */\n      dup2\n        /* \"contracts/04IntegerToRoman.sol\":2764:2773  symbol[j] */\n      dup2\n      mload\n      dup2\n      lt\n      tag_28\n      jumpi\n      tag_29\n      tag_22\n      jump\t// in\n    tag_29:\n    tag_28:\n      0x20\n      add\n      add\n      mload\n      0xf8\n      shr\n      0xf8\n      shl\n        /* \"contracts/04IntegerToRoman.sol\":2748:2754  result */\n      dup6\n        /* \"contracts/04IntegerToRoman.sol\":2755:2760  index */\n      dup6\n        /* \"contracts/04IntegerToRoman.sol\":2748:2761  result[index] */\n      dup2\n      mload\n      dup2\n      lt\n      tag_30\n      jumpi\n      tag_31\n      tag_22\n      jump\t// in\n    tag_31:\n    tag_30:\n      0x20\n      add\n      add\n        /* \"contracts/04IntegerToRoman.sol\":2748:2773  result[index] = symbol[j] */\n      swap1\n      not(0xffffffffffffffffffffffffffffffffffffffffffffffffffffffffffffff)\n      and\n      swap1\n      dup2\n      0x00\n      byte\n      swap1\n      mstore8\n      pop\n        /* \"contracts/04IntegerToRoman.sol\":2796:2803  index++ */\n      dup4\n      dup1\n      tag_32\n      swap1\n      tag_33\n      jump\t// in\n    tag_32:\n      swap5\n      pop\n      pop\n        /* \"contracts/04IntegerToRoman.sol\":2720:2723  j++ */\n      dup1\n      dup1\n      0x01\n      add\n      swap2\n      pop\n      pop\n        /* \"contracts/04IntegerToRoman.sol\":2681:2823  for (uint256 j = 0; j < symbol.length; j++) {... */\n      jump(tag_25)\n    tag_26:\n      pop\n        /* \"contracts/04IntegerToRoman.sol\":2908:2914  values */\n      dup5\n        /* \"contracts/04IntegerToRoman.sol\":2915:2916  i */\n      dup3\n        /* \"contracts/04IntegerToRoman.sol\":2908:2917  values[i] */\n      0x0d\n      dup2\n      lt\n      tag_34\n      jumpi\n      tag_35\n      tag_22\n      jump\t// in\n    tag_35:\n    tag_34:\n      0x20\n      mul\n      add\n      mload\n        /* \"contracts/04IntegerToRoman.sol\":2901:2917  num -= values[i] */\n      dup9\n      tag_36\n      swap2\n      swap1\n      tag_37\n      jump\t// in\n    tag_36:\n      swap8\n      pop\n        /* \"contracts/04IntegerToRoman.sol\":2476:2933  {... */\n      pop\n        /* \"contracts/04IntegerToRoman.sol\":2451:2933  while (values[i] <= num) {... */\n      jump(tag_18)\n    tag_19:\n        /* \"contracts/04IntegerToRoman.sol\":2366:2369  i++ */\n      dup1\n      dup1\n      0x01\n      add\n      swap2\n      pop\n      pop\n        /* \"contracts/04IntegerToRoman.sol\":2327:2944  for (uint256 i = 0; i < values.length; i++) {... */\n      jump(tag_15)\n    tag_16:\n      pop\n        /* \"contracts/04IntegerToRoman.sol\":3032:3056  bytes memory finalResult */\n      0x00\n        /* \"contracts/04IntegerToRoman.sol\":3069:3074  index */\n      dup2\n        /* \"contracts/04IntegerToRoman.sol\":3059:3075  new bytes(index) */\n      0xffffffffffffffff\n      dup2\n      gt\n      iszero\n      tag_38\n      jumpi\n      tag_39\n      tag_13\n      jump\t// in\n    tag_39:\n    tag_38:\n      mload(0x40)\n      swap1\n      dup1\n      dup3\n      mstore\n      dup1\n      0x1f\n      add\n      not(0x1f)\n      and\n      0x20\n      add\n      dup3\n      add\n      0x40\n      mstore\n      dup1\n      iszero\n      tag_40\n      jumpi\n      dup2\n      0x20\n      add\n      0x01\n      dup3\n      mul\n      dup1\n      calldatasize\n      dup4\n      calldatacopy\n      dup1\n      dup3\n      add\n      swap2\n      pop\n      pop\n      swap1\n      pop\n    tag_40:\n      pop\n        /* \"contracts/04IntegerToRoman.sol\":3032:3075  bytes memory finalResult = new bytes(index) */\n      swap1\n      pop\n        /* \"contracts/04IntegerToRoman.sol\":3091:3100  uint256 k */\n      0x00\n        /* \"contracts/04IntegerToRoman.sol\":3103:3104  0 */\n      0x00\n        /* \"contracts/04IntegerToRoman.sol\":3091:3104  uint256 k = 0 */\n      swap1\n      pop\n        /* \"contracts/04IntegerToRoman.sol\":3086:3175  for (uint256 k = 0; k < index; k++) {... */\n    tag_41:\n        /* \"contracts/04IntegerToRoman.sol\":3110:3115  index */\n      dup3\n        /* \"contracts/04IntegerToRoman.sol\":3106:3107  k */\n      dup2\n        /* \"contracts/04IntegerToRoman.sol\":3106:3115  k < index */\n      lt\n        /* \"contracts/04IntegerToRoman.sol\":3086:3175  for (uint256 k = 0; k < index; k++) {... */\n      iszero\n      tag_42\n      jumpi\n        /* \"contracts/04IntegerToRoman.sol\":3154:3160  result */\n      dup4\n        /* \"contracts/04IntegerToRoman.sol\":3161:3162  k */\n      dup2\n        /* \"contracts/04IntegerToRoman.sol\":3154:3163  result[k] */\n      dup2\n      mload\n      dup2\n      lt\n      tag_44\n      jumpi\n      tag_45\n      tag_22\n      jump\t// in\n    tag_45:\n    tag_44:\n      0x20\n      add\n      add\n      mload\n      0xf8\n      shr\n      0xf8\n      shl\n        /* \"contracts/04IntegerToRoman.sol\":3137:3148  finalResult */\n      dup3\n        /* \"contracts/04IntegerToRoman.sol\":3149:3150  k */\n      dup3\n        /* \"contracts/04IntegerToRoman.sol\":3137:3151  finalResult[k] */\n      dup2\n      mload\n      dup2\n      lt\n      tag_46\n      jumpi\n      tag_47\n      tag_22\n      jump\t// in\n    tag_47:\n    tag_46:\n      0x20\n      add\n      add\n        /* \"contracts/04IntegerToRoman.sol\":3137:3163  finalResult[k] = result[k] */\n      swap1\n      not(0xffffffffffffffffffffffffffffffffffffffffffffffffffffffffffffff)\n      and\n      swap1\n      dup2\n      0x00\n      byte\n      swap1\n      mstore8\n      pop\n        /* \"contracts/04IntegerToRoman.sol\":3117:3120  k++ */\n      dup1\n      dup1\n      0x01\n      add\n      swap2\n      pop\n      pop\n        /* \"contracts/04IntegerToRoman.sol\":3086:3175  for (uint256 k = 0; k < index; k++) {... */\n      jump(tag_41)\n    tag_42:\n      pop\n        /* \"contracts/04IntegerToRoman.sol\":3199:3210  finalResult */\n      dup1\n        /* \"contracts/04IntegerToRoman.sol\":3185:3211  return string(finalResult) */\n      swap6\n      pop\n      pop\n      pop\n      pop\n      pop\n      pop\n        /* \"contracts/04IntegerToRoman.sol\":1204:3219  function intToRoman(uint256 num) external pure returns (string memory) {... */\n      swap2\n      swap1\n      pop\n      jump\t// out\n        /* \"#utility.yul\":88:205   */\n    tag_49:\n        /* \"#utility.yul\":197:198   */\n      0x00\n        /* \"#utility.yul\":194:195   */\n      0x00\n        /* \"#utility.yul\":187:199   */\n      revert\n        /* \"#utility.yul\":334:411   */\n    tag_51:\n        /* \"#utility.yul\":371:378   */\n      0x00\n        /* \"#utility.yul\":400:405   */\n      dup2\n        /* \"#utility.yul\":389:405   */\n      swap1\n      pop\n        /* \"#utility.yul\":334:411   */\n      swap2\n      swap1\n      pop\n      jump\t// out\n        /* \"#utility.yul\":417:539   */\n    tag_52:\n        /* \"#utility.yul\":490:514   */\n      tag_66\n        /* \"#utility.yul\":508:513   */\n      dup2\n        /* \"#utility.yul\":490:514   */\n      tag_51\n      jump\t// in\n    tag_66:\n        /* \"#utility.yul\":483:488   */\n      dup2\n        /* \"#utility.yul\":480:515   */\n      eq\n        /* \"#utility.yul\":470:533   */\n      tag_67\n      jumpi\n        /* \"#utility.yul\":529:530   */\n      0x00\n        /* \"#utility.yul\":526:527   */\n      0x00\n        /* \"#utility.yul\":519:531   */\n      revert\n        /* \"#utility.yul\":470:533   */\n    tag_67:\n        /* \"#utility.yul\":417:539   */\n      pop\n      jump\t// out\n        /* \"#utility.yul\":545:684   */\n    tag_53:\n        /* \"#utility.yul\":591:596   */\n      0x00\n        /* \"#utility.yul\":629:635   */\n      dup2\n        /* \"#utility.yul\":616:636   */\n      calldataload\n        /* \"#utility.yul\":607:636   */\n      swap1\n      pop\n        /* \"#utility.yul\":645:678   */\n      tag_69\n        /* \"#utility.yul\":672:677   */\n      dup2\n        /* \"#utility.yul\":645:678   */\n      tag_52\n      jump\t// in\n    tag_69:\n        /* \"#utility.yul\":545:684   */\n      swap3\n      swap2\n      pop\n      pop\n      jump\t// out\n        /* \"#utility.yul\":690:1019   */\n    tag_6:\n        /* \"#utility.yul\":749:755   */\n      0x00\n        /* \"#utility.yul\":798:800   */\n      0x20\n        /* \"#utility.yul\":786:795   */\n      dup3\n        /* \"#utility.yul\":777:784   */\n      dup5\n        /* \"#utility.yul\":773:796   */\n      sub\n        /* \"#utility.yul\":769:801   */\n      slt\n        /* \"#utility.yul\":766:885   */\n      iszero\n      tag_71\n      jumpi\n        /* \"#utility.yul\":804:883   */\n      tag_72\n      tag_49\n      jump\t// in\n    tag_72:\n        /* \"#utility.yul\":766:885   */\n    tag_71:\n        /* \"#utility.yul\":924:925   */\n      0x00\n        /* \"#utility.yul\":949:1002   */\n      tag_73\n        /* \"#utility.yul\":994:1001   */\n      dup5\n        /* \"#utility.yul\":985:991   */\n      dup3\n        /* \"#utility.yul\":974:983   */\n      dup6\n        /* \"#utility.yul\":970:992   */\n      add\n        /* \"#utility.yul\":949:1002   */\n      tag_53\n      jump\t// in\n    tag_73:\n        /* \"#utility.yul\":939:1002   */\n      swap2\n      pop\n        /* \"#utility.yul\":895:1012   */\n      pop\n        /* \"#utility.yul\":690:1019   */\n      swap3\n      swap2\n      pop\n      pop\n      jump\t// out\n        /* \"#utility.yul\":1025:1124   */\n    tag_54:\n        /* \"#utility.yul\":1077:1083   */\n      0x00\n        /* \"#utility.yul\":1111:1116   */\n      dup2\n        /* \"#utility.yul\":1105:1117   */\n      mload\n        /* \"#utility.yul\":1095:1117   */\n      swap1\n      pop\n        /* \"#utility.yul\":1025:1124   */\n      swap2\n      swap1\n      pop\n      jump\t// out\n        /* \"#utility.yul\":1130:1299   */\n    tag_55:\n        /* \"#utility.yul\":1214:1225   */\n      0x00\n        /* \"#utility.yul\":1248:1254   */\n      dup3\n        /* \"#utility.yul\":1243:1246   */\n      dup3\n        /* \"#utility.yul\":1236:1255   */\n      mstore\n        /* \"#utility.yul\":1288:1292   */\n      0x20\n        /* \"#utility.yul\":1283:1286   */\n      dup3\n        /* \"#utility.yul\":1279:1293   */\n      add\n        /* \"#utility.yul\":1264:1293   */\n      swap1\n      pop\n        /* \"#utility.yul\":1130:1299   */\n      swap3\n      swap2\n      pop\n      pop\n      jump\t// out\n        /* \"#utility.yul\":1305:1444   */\n    tag_56:\n        /* \"#utility.yul\":1394:1400   */\n      dup3\n        /* \"#utility.yul\":1389:1392   */\n      dup2\n        /* \"#utility.yul\":1384:1387   */\n      dup4\n        /* \"#utility.yul\":1378:1401   */\n      mcopy\n        /* \"#utility.yul\":1435:1436   */\n      0x00\n        /* \"#utility.yul\":1426:1432   */\n      dup4\n        /* \"#utility.yul\":1421:1424   */\n      dup4\n        /* \"#utility.yul\":1417:1433   */\n      add\n        /* \"#utility.yul\":1410:1437   */\n      mstore\n        /* \"#utility.yul\":1305:1444   */\n      pop\n      pop\n      pop\n      jump\t// out\n        /* \"#utility.yul\":1450:1552   */\n    tag_57:\n        /* \"#utility.yul\":1491:1497   */\n      0x00\n        /* \"#utility.yul\":1542:1544   */\n      0x1f\n        /* \"#utility.yul\":1538:1545   */\n      not\n        /* \"#utility.yul\":1533:1535   */\n      0x1f\n        /* \"#utility.yul\":1526:1531   */\n      dup4\n        /* \"#utility.yul\":1522:1536   */\n      add\n        /* \"#utility.yul\":1518:1546   */\n      and\n        /* \"#utility.yul\":1508:1546   */\n      swap1\n      pop\n        /* \"#utility.yul\":1450:1552   */\n      swap2\n      swap1\n      pop\n      jump\t// out\n        /* \"#utility.yul\":1558:1935   */\n    tag_58:\n        /* \"#utility.yul\":1646:1649   */\n      0x00\n        /* \"#utility.yul\":1674:1713   */\n      tag_79\n        /* \"#utility.yul\":1707:1712   */\n      dup3\n        /* \"#utility.yul\":1674:1713   */\n      tag_54\n      jump\t// in\n    tag_79:\n        /* \"#utility.yul\":1729:1800   */\n      tag_80\n        /* \"#utility.yul\":1793:1799   */\n      dup2\n        /* \"#utility.yul\":1788:1791   */\n      dup6\n        /* \"#utility.yul\":1729:1800   */\n      tag_55\n      jump\t// in\n    tag_80:\n        /* \"#utility.yul\":1722:1800   */\n      swap4\n      pop\n        /* \"#utility.yul\":1809:1874   */\n      tag_81\n        /* \"#utility.yul\":1867:1873   */\n      dup2\n        /* \"#utility.yul\":1862:1865   */\n      dup6\n        /* \"#utility.yul\":1855:1859   */\n      0x20\n        /* \"#utility.yul\":1848:1853   */\n      dup7\n        /* \"#utility.yul\":1844:1860   */\n      add\n        /* \"#utility.yul\":1809:1874   */\n      tag_56\n      jump\t// in\n    tag_81:\n        /* \"#utility.yul\":1899:1928   */\n      tag_82\n        /* \"#utility.yul\":1921:1927   */\n      dup2\n        /* \"#utility.yul\":1899:1928   */\n      tag_57\n      jump\t// in\n    tag_82:\n        /* \"#utility.yul\":1894:1897   */\n      dup5\n        /* \"#utility.yul\":1890:1929   */\n      add\n        /* \"#utility.yul\":1883:1929   */\n      swap2\n      pop\n        /* \"#utility.yul\":1650:1935   */\n      pop\n        /* \"#utility.yul\":1558:1935   */\n      swap3\n      swap2\n      pop\n      pop\n      jump\t// out\n        /* \"#utility.yul\":1941:2254   */\n    tag_9:\n        /* \"#utility.yul\":2054:2058   */\n      0x00\n        /* \"#utility.yul\":2092:2094   */\n      0x20\n        /* \"#utility.yul\":2081:2090   */\n      dup3\n        /* \"#utility.yul\":2077:2095   */\n      add\n        /* \"#utility.yul\":2069:2095   */\n      swap1\n      pop\n        /* \"#utility.yul\":2141:2150   */\n      dup2\n        /* \"#utility.yul\":2135:2139   */\n      dup2\n        /* \"#utility.yul\":2131:2151   */\n      sub\n        /* \"#utility.yul\":2127:2128   */\n      0x00\n        /* \"#utility.yul\":2116:2125   */\n      dup4\n        /* \"#utility.yul\":2112:2129   */\n      add\n        /* \"#utility.yul\":2105:2152   */\n      mstore\n        /* \"#utility.yul\":2169:2247   */\n      tag_84\n        /* \"#utility.yul\":2242:2246   */\n      dup2\n        /* \"#utility.yul\":2233:2239   */\n      dup5\n        /* \"#utility.yul\":2169:2247   */\n      tag_58\n      jump\t// in\n    tag_84:\n        /* \"#utility.yul\":2161:2247   */\n      swap1\n      pop\n        /* \"#utility.yul\":1941:2254   */\n      swap3\n      swap2\n      pop\n      pop\n      jump\t// out\n        /* \"#utility.yul\":2260:2440   */\n    tag_13:\n        /* \"#utility.yul\":2308:2385   */\n      0x4e487b7100000000000000000000000000000000000000000000000000000000\n        /* \"#utility.yul\":2305:2306   */\n      0x00\n        /* \"#utility.yul\":2298:2386   */\n      mstore\n        /* \"#utility.yul\":2405:2409   */\n      0x41\n        /* \"#utility.yul\":2402:2403   */\n      0x04\n        /* \"#utility.yul\":2395:2410   */\n      mstore\n        /* \"#utility.yul\":2429:2433   */\n      0x24\n        /* \"#utility.yul\":2426:2427   */\n      0x00\n        /* \"#utility.yul\":2419:2434   */\n      revert\n        /* \"#utility.yul\":2446:2626   */\n    tag_22:\n        /* \"#utility.yul\":2494:2571   */\n      0x4e487b7100000000000000000000000000000000000000000000000000000000\n        /* \"#utility.yul\":2491:2492   */\n      0x00\n        /* \"#utility.yul\":2484:2572   */\n      mstore\n        /* \"#utility.yul\":2591:2595   */\n      0x32\n        /* \"#utility.yul\":2588:2589   */\n      0x04\n        /* \"#utility.yul\":2581:2596   */\n      mstore\n        /* \"#utility.yul\":2615:2619   */\n      0x24\n        /* \"#utility.yul\":2612:2613   */\n      0x00\n        /* \"#utility.yul\":2605:2620   */\n      revert\n        /* \"#utility.yul\":2632:2812   */\n    tag_59:\n        /* \"#utility.yul\":2680:2757   */\n      0x4e487b7100000000000000000000000000000000000000000000000000000000\n        /* \"#utility.yul\":2677:2678   */\n      0x00\n        /* \"#utility.yul\":2670:2758   */\n      mstore\n        /* \"#utility.yul\":2777:2781   */\n      0x11\n        /* \"#utility.yul\":2774:2775   */\n      0x04\n        /* \"#utility.yul\":2767:2782   */\n      mstore\n        /* \"#utility.yul\":2801:2805   */\n      0x24\n        /* \"#utility.yul\":2798:2799   */\n      0x00\n        /* \"#utility.yul\":2791:2806   */\n      revert\n        /* \"#utility.yul\":2818:3051   */\n    tag_33:\n        /* \"#utility.yul\":2857:2860   */\n      0x00\n        /* \"#utility.yul\":2880:2904   */\n      tag_89\n        /* \"#utility.yul\":2898:2903   */\n      dup3\n        /* \"#utility.yul\":2880:2904   */\n      tag_51\n      jump\t// in\n    tag_89:\n        /* \"#utility.yul\":2871:2904   */\n      swap2\n      pop\n        /* \"#utility.yul\":2926:2992   */\n      0xffffffffffffffffffffffffffffffffffffffffffffffffffffffffffffffff\n        /* \"#utility.yul\":2919:2924   */\n      dup3\n        /* \"#utility.yul\":2916:2993   */\n      sub\n        /* \"#utility.yul\":2913:3016   */\n      tag_90\n      jumpi\n        /* \"#utility.yul\":2996:3014   */\n      tag_91\n      tag_59\n      jump\t// in\n    tag_91:\n        /* \"#utility.yul\":2913:3016   */\n    tag_90:\n        /* \"#utility.yul\":3043:3044   */\n      0x01\n        /* \"#utility.yul\":3036:3041   */\n      dup3\n        /* \"#utility.yul\":3032:3045   */\n      add\n        /* \"#utility.yul\":3025:3045   */\n      swap1\n      pop\n        /* \"#utility.yul\":2818:3051   */\n      swap2\n      swap1\n      pop\n      jump\t// out\n        /* \"#utility.yul\":3057:3251   */\n    tag_37:\n        /* \"#utility.yul\":3097:3101   */\n      0x00\n        /* \"#utility.yul\":3117:3137   */\n      tag_93\n        /* \"#utility.yul\":3135:3136   */\n      dup3\n        /* \"#utility.yul\":3117:3137   */\n      tag_51\n      jump\t// in\n    tag_93:\n        /* \"#utility.yul\":3112:3137   */\n      swap2\n      pop\n        /* \"#utility.yul\":3151:3171   */\n      tag_94\n        /* \"#utility.yul\":3169:3170   */\n      dup4\n        /* \"#utility.yul\":3151:3171   */\n      tag_51\n      jump\t// in\n    tag_94:\n        /* \"#utility.yul\":3146:3171   */\n      swap3\n      pop\n        /* \"#utility.yul\":3195:3196   */\n      dup3\n        /* \"#utility.yul\":3192:3193   */\n      dup3\n        /* \"#utility.yul\":3188:3197   */\n      sub\n        /* \"#utility.yul\":3180:3197   */\n      swap1\n      pop\n        /* \"#utility.yul\":3219:3220   */\n      dup2\n        /* \"#utility.yul\":3213:3217   */\n      dup2\n        /* \"#utility.yul\":3210:3221   */\n      gt\n        /* \"#utility.yul\":3207:3244   */\n      iszero\n      tag_95\n      jumpi\n        /* \"#utility.yul\":3224:3242   */\n      tag_96\n      tag_59\n      jump\t// in\n    tag_96:\n        /* \"#utility.yul\":3207:3244   */\n    tag_95:\n        /* \"#utility.yul\":3057:3251   */\n      swap3\n      swap2\n      pop\n      pop\n      jump\t// out\n\n    auxdata: 0xa26469706673582212204e66189a4d94490414cae294cf4b27e231205b51c1252174950ad92039e5299264736f6c634300081e0033\n}\n",
				"bytecode": {
					"linkReferences": {},
					"object": "6080604052348015600e575f5ffd5b506108368061001c5f395ff3fe608060405234801561000f575f5ffd5b5060043610610029575f3560e01c80630cbc513a1461002d575b5f5ffd5b61004760048036038101906100429190610644565b61005d565b60405161005491906106df565b60405180910390f35b60605f604051806101a001604052806040518060400160405280600181526020017f4d0000000000000000000000000000000000000000000000000000000000000081525081526020016040518060400160405280600281526020017f434d00000000000000000000000000000000000000000000000000000000000081525081526020016040518060400160405280600181526020017f440000000000000000000000000000000000000000000000000000000000000081525081526020016040518060400160405280600281526020017f434400000000000000000000000000000000000000000000000000000000000081525081526020016040518060400160405280600181526020017f430000000000000000000000000000000000000000000000000000000000000081525081526020016040518060400160405280600281526020017f584300000000000000000000000000000000000000000000000000000000000081525081526020016040518060400160405280600181526020017f4c0000000000000000000000000000000000000000000000000000000000000081525081526020016040518060400160405280600281526020017f584c00000000000000000000000000000000000000000000000000000000000081525081526020016040518060400160405280600181526020017f580000000000000000000000000000000000000000000000000000000000000081525081526020016040518060400160405280600281526020017f495800000000000000000000000000000000000000000000000000000000000081525081526020016040518060400160405280600181526020017f560000000000000000000000000000000000000000000000000000000000000081525081526020016040518060400160405280600281526020017f495600000000000000000000000000000000000000000000000000000000000081525081526020016040518060400160405280600181526020017f490000000000000000000000000000000000000000000000000000000000000081525081525090505f604051806101a001604052806103e8815260200161038481526020016101f48152602001610190815260200160648152602001605a81526020016032815260200160288152602001600a8152602001600981526020016005815260200160048152602001600181525090505f606467ffffffffffffffff8111156103f3576103f26106ff565b5b6040519080825280601f01601f1916602001820160405280156104255781602001600182028036833780820191505090505b5090505f5f90505f5f90505b600d811015610535575b868482600d811061044f5761044e61072c565b5b602002015111610528575f8582600d811061046d5761046c61072c565b5b602002015190505f5f90505b81518110156104fc578181815181106104955761049461072c565b5b602001015160f81c60f81b8585815181106104b3576104b261072c565b5b60200101907effffffffffffffffffffffffffffffffffffffffffffffffffffffffffffff191690815f1a90535083806104ec90610786565b9450508080600101915050610479565b508482600d81106105105761050f61072c565b5b60200201518861052091906107cd565b97505061043b565b8080600101915050610431565b505f8167ffffffffffffffff811115610551576105506106ff565b5b6040519080825280601f01601f1916602001820160405280156105835781602001600182028036833780820191505090505b5090505f5f90505b828110156105ff578381815181106105a6576105a561072c565b5b602001015160f81c60f81b8282815181106105c4576105c361072c565b5b60200101907effffffffffffffffffffffffffffffffffffffffffffffffffffffffffffff191690815f1a905350808060010191505061058b565b508095505050505050919050565b5f5ffd5b5f819050919050565b61062381610611565b811461062d575f5ffd5b50565b5f8135905061063e8161061a565b92915050565b5f602082840312156106595761065861060d565b5b5f61066684828501610630565b91505092915050565b5f81519050919050565b5f82825260208201905092915050565b8281835e5f83830152505050565b5f601f19601f8301169050919050565b5f6106b18261066f565b6106bb8185610679565b93506106cb818560208601610689565b6106d481610697565b840191505092915050565b5f6020820190508181035f8301526106f781846106a7565b905092915050565b7f4e487b71000000000000000000000000000000000000000000000000000000005f52604160045260245ffd5b7f4e487b71000000000000000000000000000000000000000000000000000000005f52603260045260245ffd5b7f4e487b71000000000000000000000000000000000000000000000000000000005f52601160045260245ffd5b5f61079082610611565b91507fffffffffffffffffffffffffffffffffffffffffffffffffffffffffffffffff82036107c2576107c1610759565b5b600182019050919050565b5f6107d782610611565b91506107e283610611565b92508282039050818111156107fa576107f9610759565b5b9291505056fea26469706673582212204e66189a4d94490414cae294cf4b27e231205b51c1252174950ad92039e5299264736f6c634300081e0033",
					"opcodes": "PUSH1 0x80 PUSH1 0x40 MSTORE CALLVALUE DUP1 ISZERO PUSH1 0xE JUMPI PUSH0 PUSH0 REVERT JUMPDEST POP PUSH2 0x836 DUP1 PUSH2 0x1C PUSH0 CODECOPY PUSH0 RETURN INVALID PUSH1 0x80 PUSH1 0x40 MSTORE CALLVALUE DUP1 ISZERO PUSH2 0xF JUMPI PUSH0 PUSH0 REVERT JUMPDEST POP PUSH1 0x4 CALLDATASIZE LT PUSH2 0x29 JUMPI PUSH0 CALLDATALOAD PUSH1 0xE0 SHR DUP1 PUSH4 0xCBC513A EQ PUSH2 0x2D JUMPI JUMPDEST PUSH0 PUSH0 REVERT JUMPDEST PUSH2 0x47 PUSH1 0x4 DUP1 CALLDATASIZE SUB DUP2 ADD SWAP1 PUSH2 0x42 SWAP2 SWAP1 PUSH2 0x644 JUMP JUMPDEST PUSH2 0x5D JUMP JUMPDEST PUSH1 0x40 MLOAD PUSH2 0x54 SWAP2 SWAP1 PUSH2 0x6DF JUMP JUMPDEST PUSH1 0x40 MLOAD DUP1 SWAP2 SUB SWAP1 RETURN JUMPDEST PUSH1 0x60 PUSH0 PUSH1 0x40 MLOAD DUP1 PUSH2 0x1A0 ADD PUSH1 0x40 MSTORE DUP1 PUSH1 0x40 MLOAD DUP1 PUSH1 0x40 ADD PUSH1 0x40 MSTORE DUP1 PUSH1 0x1 DUP2 MSTORE PUSH1 0x20 ADD PUSH32 0x4D00000000000000000000000000000000000000000000000000000000000000 DUP2 MSTORE POP DUP2 MSTORE PUSH1 0x20 ADD PUSH1 0x40 MLOAD DUP1 PUSH1 0x40 ADD PUSH1 0x40 MSTORE DUP1 PUSH1 0x2 DUP2 MSTORE PUSH1 0x20 ADD PUSH32 0x434D000000000000000000000000000000000000000000000000000000000000 DUP2 MSTORE POP DUP2 MSTORE PUSH1 0x20 ADD PUSH1 0x40 MLOAD DUP1 PUSH1 0x40 ADD PUSH1 0x40 MSTORE DUP1 PUSH1 0x1 DUP2 MSTORE PUSH1 0x20 ADD PUSH32 0x4400000000000000000000000000000000000000000000000000000000000000 DUP2 MSTORE POP DUP2 MSTORE PUSH1 0x20 ADD PUSH1 0x40 MLOAD DUP1 PUSH1 0x40 ADD PUSH1 0x40 MSTORE DUP1 PUSH1 0x2 DUP2 MSTORE PUSH1 0x20 ADD PUSH32 0x4344000000000000000000000000000000000000000000000000000000000000 DUP2 MSTORE POP DUP2 MSTORE PUSH1 0x20 ADD PUSH1 0x40 MLOAD DUP1 PUSH1 0x40 ADD PUSH1 0x40 MSTORE DUP1 PUSH1 0x1 DUP2 MSTORE PUSH1 0x20 ADD PUSH32 0x4300000000000000000000000000000000000000000000000000000000000000 DUP2 MSTORE POP DUP2 MSTORE PUSH1 0x20 ADD PUSH1 0x40 MLOAD DUP1 PUSH1 0x40 ADD PUSH1 0x40 MSTORE DUP1 PUSH1 0x2 DUP2 MSTORE PUSH1 0x20 ADD PUSH32 0x5843000000000000000000000000000000000000000000000000000000000000 DUP2 MSTORE POP DUP2 MSTORE PUSH1 0x20 ADD PUSH1 0x40 MLOAD DUP1 PUSH1 0x40 ADD PUSH1 0x40 MSTORE DUP1 PUSH1 0x1 DUP2 MSTORE PUSH1 0x20 ADD PUSH32 0x4C00000000000000000000000000000000000000000000000000000000000000 DUP2 MSTORE POP DUP2 MSTORE PUSH1 0x20 ADD PUSH1 0x40 MLOAD DUP1 PUSH1 0x40 ADD PUSH1 0x40 MSTORE DUP1 PUSH1 0x2 DUP2 MSTORE PUSH1 0x20 ADD PUSH32 0x584C000000000000000000000000000000000000000000000000000000000000 DUP2 MSTORE POP DUP2 MSTORE PUSH1 0x20 ADD PUSH1 0x40 MLOAD DUP1 PUSH1 0x40 ADD PUSH1 0x40 MSTORE DUP1 PUSH1 0x1 DUP2 MSTORE PUSH1 0x20 ADD PUSH32 0x5800000000000000000000000000000000000000000000000000000000000000 DUP2 MSTORE POP DUP2 MSTORE PUSH1 0x20 ADD PUSH1 0x40 MLOAD DUP1 PUSH1 0x40 ADD PUSH1 0x40 MSTORE DUP1 PUSH1 0x2 DUP2 MSTORE PUSH1 0x20 ADD PUSH32 0x4958000000000000000000000000000000000000000000000000000000000000 DUP2 MSTORE POP DUP2 MSTORE PUSH1 0x20 ADD PUSH1 0x40 MLOAD DUP1 PUSH1 0x40 ADD PUSH1 0x40 MSTORE DUP1 PUSH1 0x1 DUP2 MSTORE PUSH1 0x20 ADD PUSH32 0x5600000000000000000000000000000000000000000000000000000000000000 DUP2 MSTORE POP DUP2 MSTORE PUSH1 0x20 ADD PUSH1 0x40 MLOAD DUP1 PUSH1 0x40 ADD PUSH1 0x40 MSTORE DUP1 PUSH1 0x2 DUP2 MSTORE PUSH1 0x20 ADD PUSH32 0x4956000000000000000000000000000000000000000000000000000000000000 DUP2 MSTORE POP DUP2 MSTORE PUSH1 0x20 ADD PUSH1 0x40 MLOAD DUP1 PUSH1 0x40 ADD PUSH1 0x40 MSTORE DUP1 PUSH1 0x1 DUP2 MSTORE PUSH1 0x20 ADD PUSH32 0x4900000000000000000000000000000000000000000000000000000000000000 DUP2 MSTORE POP DUP2 MSTORE POP SWAP1 POP PUSH0 PUSH1 0x40 MLOAD DUP1 PUSH2 0x1A0 ADD PUSH1 0x40 MSTORE DUP1 PUSH2 0x3E8 DUP2 MSTORE PUSH1 0x20 ADD PUSH2 0x384 DUP2 MSTORE PUSH1 0x20 ADD PUSH2 0x1F4 DUP2 MSTORE PUSH1 0x20 ADD PUSH2 0x190 DUP2 MSTORE PUSH1 0x20 ADD PUSH1 0x64 DUP2 MSTORE PUSH1 0x20 ADD PUSH1 0x5A DUP2 MSTORE PUSH1 0x20 ADD PUSH1 0x32 DUP2 MSTORE PUSH1 0x20 ADD PUSH1 0x28 DUP2 MSTORE PUSH1 0x20 ADD PUSH1 0xA DUP2 MSTORE PUSH1 0x20 ADD PUSH1 0x9 DUP2 MSTORE PUSH1 0x20 ADD PUSH1 0x5 DUP2 MSTORE PUSH1 0x20 ADD PUSH1 0x4 DUP2 MSTORE PUSH1 0x20 ADD PUSH1 0x1 DUP2 MSTORE POP SWAP1 POP PUSH0 PUSH1 0x64 PUSH8 0xFFFFFFFFFFFFFFFF DUP2 GT ISZERO PUSH2 0x3F3 JUMPI PUSH2 0x3F2 PUSH2 0x6FF JUMP JUMPDEST JUMPDEST PUSH1 0x40 MLOAD SWAP1 DUP1 DUP3 MSTORE DUP1 PUSH1 0x1F ADD PUSH1 0x1F NOT AND PUSH1 0x20 ADD DUP3 ADD PUSH1 0x40 MSTORE DUP1 ISZERO PUSH2 0x425 JUMPI DUP2 PUSH1 0x20 ADD PUSH1 0x1 DUP3 MUL DUP1 CALLDATASIZE DUP4 CALLDATACOPY DUP1 DUP3 ADD SWAP2 POP POP SWAP1 POP JUMPDEST POP SWAP1 POP PUSH0 PUSH0 SWAP1 POP PUSH0 PUSH0 SWAP1 POP JUMPDEST PUSH1 0xD DUP2 LT ISZERO PUSH2 0x535 JUMPI JUMPDEST DUP7 DUP5 DUP3 PUSH1 0xD DUP2 LT PUSH2 0x44F JUMPI PUSH2 0x44E PUSH2 0x72C JUMP JUMPDEST JUMPDEST PUSH1 0x20 MUL ADD MLOAD GT PUSH2 0x528 JUMPI PUSH0 DUP6 DUP3 PUSH1 0xD DUP2 LT PUSH2 0x46D JUMPI PUSH2 0x46C PUSH2 0x72C JUMP JUMPDEST JUMPDEST PUSH1 0x20 MUL ADD MLOAD SWAP1 POP PUSH0 PUSH0 SWAP1 POP JUMPDEST DUP2 MLOAD DUP2 LT ISZERO PUSH2 0x4FC JUMPI DUP2 DUP2 DUP2 MLOAD DUP2 LT PUSH2 0x495 JUMPI PUSH2 0x494 PUSH2 0x72C JUMP JUMPDEST JUMPDEST PUSH1 0x20 ADD ADD MLOAD PUSH1 0xF8 SHR PUSH1 0xF8 SHL DUP6 DUP6 DUP2 MLOAD DUP2 LT PUSH2 0x4B3 JUMPI PUSH2 0x4B2 PUSH2 0x72C JUMP JUMPDEST JUMPDEST PUSH1 0x20 ADD ADD SWAP1 PUSH31 0xFFFFFFFFFFFFFFFFFFFFFFFFFFFFFFFFFFFFFFFFFFFFFFFFFFFFFFFFFFFFFF NOT AND SWAP1 DUP2 PUSH0 BYTE SWAP1 MSTORE8 POP DUP4 DUP1 PUSH2 0x4EC SWAP1 PUSH2 0x786 JUMP JUMPDEST SWAP5 POP POP DUP1 DUP1 PUSH1 0x1 ADD SWAP2 POP POP PUSH2 0x479 JUMP JUMPDEST POP DUP5 DUP3 PUSH1 0xD DUP2 LT PUSH2 0x510 JUMPI PUSH2 0x50F PUSH2 0x72C JUMP JUMPDEST JUMPDEST PUSH1 0x20 MUL ADD MLOAD DUP9 PUSH2 0x520 SWAP2 SWAP1 PUSH2 0x7CD JUMP JUMPDEST SWAP8 POP POP PUSH2 0x43B JUMP JUMPDEST DUP1 DUP1 PUSH1 0x1 ADD SWAP2 POP POP PUSH2 0x431 JUMP JUMPDEST POP PUSH0 DUP2 PUSH8 0xFFFFFFFFFFFFFFFF DUP2 GT ISZERO PUSH2 0x551 JUMPI PUSH2 0x550 PUSH2 0x6FF JUMP JUMPDEST JUMPDEST PUSH1 0x40 MLOAD SWAP1 DUP1 DUP3 MSTORE DUP1 PUSH1 0x1F ADD PUSH1 0x1F NOT AND PUSH1 0x20 ADD DUP3 ADD PUSH1 0x40 MSTORE DUP1 ISZERO PUSH2 0x583 JUMPI DUP2 PUSH1 0x20 ADD PUSH1 0x1 DUP3 MUL DUP1 CALLDATASIZE DUP4 CALLDATACOPY DUP1 DUP3 ADD SWAP2 POP POP SWAP1 POP JUMPDEST POP SWAP1 POP PUSH0 PUSH0 SWAP1 POP JUMPDEST DUP3 DUP2 LT ISZERO PUSH2 0x5FF JUMPI DUP4 DUP2 DUP2 MLOAD DUP2 LT PUSH2 0x5A6 JUMPI PUSH2 0x5A5 PUSH2 0x72C JUMP JUMPDEST JUMPDEST PUSH1 0x20 ADD ADD MLOAD PUSH1 0xF8 SHR PUSH1 0xF8 SHL DUP3 DUP3 DUP2 MLOAD DUP2 LT PUSH2 0x5C4 JUMPI PUSH2 0x5C3 PUSH2 0x72C JUMP JUMPDEST JUMPDEST PUSH1 0x20 ADD ADD SWAP1 PUSH31 0xFFFFFFFFFFFFFFFFFFFFFFFFFFFFFFFFFFFFFFFFFFFFFFFFFFFFFFFFFFFFFF NOT AND SWAP1 DUP2 PUSH0 BYTE SWAP1 MSTORE8 POP DUP1 DUP1 PUSH1 0x1 ADD SWAP2 POP POP PUSH2 0x58B JUMP JUMPDEST POP DUP1 SWAP6 POP POP POP POP POP POP SWAP2 SWAP1 POP JUMP JUMPDEST PUSH0 PUSH0 REVERT JUMPDEST PUSH0 DUP2 SWAP1 POP SWAP2 SWAP1 POP JUMP JUMPDEST PUSH2 0x623 DUP2 PUSH2 0x611 JUMP JUMPDEST DUP2 EQ PUSH2 0x62D JUMPI PUSH0 PUSH0 REVERT JUMPDEST POP JUMP JUMPDEST PUSH0 DUP2 CALLDATALOAD SWAP1 POP PUSH2 0x63E DUP2 PUSH2 0x61A JUMP JUMPDEST SWAP3 SWAP2 POP POP JUMP JUMPDEST PUSH0 PUSH1 0x20 DUP3 DUP5 SUB SLT ISZERO PUSH2 0x659 JUMPI PUSH2 0x658 PUSH2 0x60D JUMP JUMPDEST JUMPDEST PUSH0 PUSH2 0x666 DUP5 DUP3 DUP6 ADD PUSH2 0x630 JUMP JUMPDEST SWAP2 POP POP SWAP3 SWAP2 POP POP JUMP JUMPDEST PUSH0 DUP2 MLOAD SWAP1 POP SWAP2 SWAP1 POP JUMP JUMPDEST PUSH0 DUP3 DUP3 MSTORE PUSH1 0x20 DUP3 ADD SWAP1 POP SWAP3 SWAP2 POP POP JUMP JUMPDEST DUP3 DUP2 DUP4 MCOPY PUSH0 DUP4 DUP4 ADD MSTORE POP POP POP JUMP JUMPDEST PUSH0 PUSH1 0x1F NOT PUSH1 0x1F DUP4 ADD AND SWAP1 POP SWAP2 SWAP1 POP JUMP JUMPDEST PUSH0 PUSH2 0x6B1 DUP3 PUSH2 0x66F JUMP JUMPDEST PUSH2 0x6BB DUP2 DUP6 PUSH2 0x679 JUMP JUMPDEST SWAP4 POP PUSH2 0x6CB DUP2 DUP6 PUSH1 0x20 DUP7 ADD PUSH2 0x689 JUMP JUMPDEST PUSH2 0x6D4 DUP2 PUSH2 0x697 JUMP JUMPDEST DUP5 ADD SWAP2 POP POP SWAP3 SWAP2 POP POP JUMP JUMPDEST PUSH0 PUSH1 0x20 DUP3 ADD SWAP1 POP DUP2 DUP2 SUB PUSH0 DUP4 ADD MSTORE PUSH2 0x6F7 DUP2 DUP5 PUSH2 0x6A7 JUMP JUMPDEST SWAP1 POP SWAP3 SWAP2 POP POP JUMP JUMPDEST PUSH32 0x4E487B7100000000000000000000000000000000000000000000000000000000 PUSH0 MSTORE PUSH1 0x41 PUSH1 0x4 MSTORE PUSH1 0x24 PUSH0 REVERT JUMPDEST PUSH32 0x4E487B7100000000000000000000000000000000000000000000000000000000 PUSH0 MSTORE PUSH1 0x32 PUSH1 0x4 MSTORE PUSH1 0x24 PUSH0 REVERT JUMPDEST PUSH32 0x4E487B7100000000000000000000000000000000000000000000000000000000 PUSH0 MSTORE PUSH1 0x11 PUSH1 0x4 MSTORE PUSH1 0x24 PUSH0 REVERT JUMPDEST PUSH0 PUSH2 0x790 DUP3 PUSH2 0x611 JUMP JUMPDEST SWAP2 POP PUSH32 0xFFFFFFFFFFFFFFFFFFFFFFFFFFFFFFFFFFFFFFFFFFFFFFFFFFFFFFFFFFFFFFFF DUP3 SUB PUSH2 0x7C2 JUMPI PUSH2 0x7C1 PUSH2 0x759 JUMP JUMPDEST JUMPDEST PUSH1 0x1 DUP3 ADD SWAP1 POP SWAP2 SWAP1 POP JUMP JUMPDEST PUSH0 PUSH2 0x7D7 DUP3 PUSH2 0x611 JUMP JUMPDEST SWAP2 POP PUSH2 0x7E2 DUP4 PUSH2 0x611 JUMP JUMPDEST SWAP3 POP DUP3 DUP3 SUB SWAP1 POP DUP2 DUP2 GT ISZERO PUSH2 0x7FA JUMPI PUSH2 0x7F9 PUSH2 0x759 JUMP JUMPDEST JUMPDEST SWAP3 SWAP2 POP POP JUMP INVALID LOG2 PUSH5 0x6970667358 0x22 SLT KECCAK256 0x4E PUSH7 0x189A4D94490414 0xCA 0xE2 SWAP5 0xCF 0x4B 0x27 0xE2 BALANCE KECCAK256 JUMPDEST MLOAD 0xC1 0x25 0x21 PUSH21 0x950AD92039E5299264736F6C634300081E00330000 "
				},
				"gasEstimates": {
					"creation": {
						"codeDepositCost": "420400",
						"executionCost": "453",
						"totalCost": "420853"
					},
					"external": {
						"intToRoman(uint256)": "infinite"
					}
				},
				"methodIdentifiers": {
					"intToRoman(uint256)": "0cbc513a"
				}
			},
			"storageLayout": {
				"storage": [],
				"types": null
			},
			"userdoc": {
				"kind": "user",
				"methods": {},
				"version": 1
			}
		}
	}
}