{
	"contracts/RomanToInteger.sol": {
		"RomanToInteger": {
			"abi": [
				{
					"inputs": [
						{
							"internalType": "string",
							"name": "roman",
							"type": "string"
						}
					],
					"name": "romanToInt",
					"outputs": [
						{
							"internalType": "uint256",
							"name": "",
							"type": "uint256"
						}
					],
					"stateMutability": "pure",
					"type": "function"
				}
			],
			"devdoc": {
				"details": "实现将罗马数字转换为整数的功能。 罗马数字包含以下七种字符: I， V， X， L，C，D 和 M，对应数值分别为 1, 5, 10, 50, 100, 500, 1000。 通常小数字在大数字右边，但存在六种特例： 1. I 可以放在 V (5) 和 X (10) 的左边，来表示 4 和 9。 2. X 可以放在 L (50) 和 C (100) 的左边，来表示 40 和 90。 3. C 可以放在 D (500) 和 M (1000) 的左边，来表示 400 和 900。",
				"kind": "dev",
				"methods": {
					"romanToInt(string)": {
						"details": "将输入的罗马数字字符串转换为对应的整数。",
						"params": {
							"roman": "要转换的罗马数字字符串。"
						},
						"returns": {
							"_0": "转换后的整数。"
						}
					}
				},
				"title": "RomanToInteger",
				"version": 1
			},
			"evm": {
				"assembly": "    /* \"contracts/RomanToInteger.sol\":793:3178  contract RomanToInteger {... */\n  mstore(0x40, 0x80)\n  callvalue\n  dup1\n  iszero\n  tag_1\n  jumpi\n  revert(0x00, 0x00)\ntag_1:\n  pop\n  dataSize(sub_0)\n  dup1\n  dataOffset(sub_0)\n  0x00\n  codecopy\n  0x00\n  return\nstop\n\nsub_0: assembly {\n        /* \"contracts/RomanToInteger.sol\":793:3178  contract RomanToInteger {... */\n      mstore(0x40, 0x80)\n      callvalue\n      dup1\n      iszero\n      tag_1\n      jumpi\n      revert(0x00, 0x00)\n    tag_1:\n      pop\n      jumpi(tag_2, lt(calldatasize, 0x04))\n      shr(0xe0, calldataload(0x00))\n      dup1\n      0xcb159dfe\n      eq\n      tag_3\n      jumpi\n    tag_2:\n      revert(0x00, 0x00)\n        /* \"contracts/RomanToInteger.sol\":1012:2496  function romanToInt(string memory roman) external pure returns (uint256) {... */\n    tag_3:\n      tag_4\n      0x04\n      dup1\n      calldatasize\n      sub\n      dup2\n      add\n      swap1\n      tag_5\n      swap2\n      swap1\n      tag_6\n      jump\t// in\n    tag_5:\n      tag_7\n      jump\t// in\n    tag_4:\n      mload(0x40)\n      tag_8\n      swap2\n      swap1\n      tag_9\n      jump\t// in\n    tag_8:\n      mload(0x40)\n      dup1\n      swap2\n      sub\n      swap1\n      return\n    tag_7:\n        /* \"contracts/RomanToInteger.sol\":1076:1083  uint256 */\n      0x00\n        /* \"contracts/RomanToInteger.sol\":1188:1211  bytes memory romanBytes */\n      0x00\n        /* \"contracts/RomanToInteger.sol\":1220:1225  roman */\n      dup3\n        /* \"contracts/RomanToInteger.sol\":1188:1226  bytes memory romanBytes = bytes(roman) */\n      swap1\n      pop\n        /* \"contracts/RomanToInteger.sol\":1276:1290  uint256 result */\n      0x00\n        /* \"contracts/RomanToInteger.sol\":1293:1294  0 */\n      0x00\n        /* \"contracts/RomanToInteger.sol\":1276:1294  uint256 result = 0 */\n      swap1\n      pop\n        /* \"contracts/RomanToInteger.sol\":1367:1376  uint256 i */\n      0x00\n        /* \"contracts/RomanToInteger.sol\":1379:1380  0 */\n      0x00\n        /* \"contracts/RomanToInteger.sol\":1367:1380  uint256 i = 0 */\n      swap1\n      pop\n        /* \"contracts/RomanToInteger.sol\":1362:2426  for (uint256 i = 0; i < romanBytes.length; i++) {... */\n    tag_11:\n        /* \"contracts/RomanToInteger.sol\":1386:1396  romanBytes */\n      dup3\n        /* \"contracts/RomanToInteger.sol\":1386:1403  romanBytes.length */\n      mload\n        /* \"contracts/RomanToInteger.sol\":1382:1383  i */\n      dup2\n        /* \"contracts/RomanToInteger.sol\":1382:1403  i < romanBytes.length */\n      lt\n        /* \"contracts/RomanToInteger.sol\":1362:2426  for (uint256 i = 0; i < romanBytes.length; i++) {... */\n      iszero\n      tag_12\n      jumpi\n        /* \"contracts/RomanToInteger.sol\":1475:1495  uint256 currentValue */\n      0x00\n        /* \"contracts/RomanToInteger.sol\":1498:1524  charToValue(romanBytes[i]) */\n      tag_14\n        /* \"contracts/RomanToInteger.sol\":1510:1520  romanBytes */\n      dup5\n        /* \"contracts/RomanToInteger.sol\":1521:1522  i */\n      dup4\n        /* \"contracts/RomanToInteger.sol\":1510:1523  romanBytes[i] */\n      dup2\n      mload\n      dup2\n      lt\n      tag_15\n      jumpi\n      tag_16\n      tag_17\n      jump\t// in\n    tag_16:\n    tag_15:\n      0x20\n      add\n      add\n      mload\n      0xf8\n      shr\n      0xf8\n      shl\n        /* \"contracts/RomanToInteger.sol\":1498:1509  charToValue */\n      tag_18\n        /* \"contracts/RomanToInteger.sol\":1498:1524  charToValue(romanBytes[i]) */\n      jump\t// in\n    tag_14:\n        /* \"contracts/RomanToInteger.sol\":1475:1524  uint256 currentValue = charToValue(romanBytes[i]) */\n      swap1\n      pop\n        /* \"contracts/RomanToInteger.sol\":1637:1647  romanBytes */\n      dup4\n        /* \"contracts/RomanToInteger.sol\":1637:1654  romanBytes.length */\n      mload\n        /* \"contracts/RomanToInteger.sol\":1633:1634  1 */\n      0x01\n        /* \"contracts/RomanToInteger.sol\":1629:1630  i */\n      dup4\n        /* \"contracts/RomanToInteger.sol\":1629:1634  i + 1 */\n      tag_19\n      swap2\n      swap1\n      tag_20\n      jump\t// in\n    tag_19:\n        /* \"contracts/RomanToInteger.sol\":1629:1654  i + 1 < romanBytes.length */\n      lt\n        /* \"contracts/RomanToInteger.sol\":1625:2415  if (i + 1 < romanBytes.length) {... */\n      iszero\n      tag_21\n      jumpi\n        /* \"contracts/RomanToInteger.sol\":1675:1692  uint256 nextValue */\n      0x00\n        /* \"contracts/RomanToInteger.sol\":1695:1725  charToValue(romanBytes[i + 1]) */\n      tag_22\n        /* \"contracts/RomanToInteger.sol\":1707:1717  romanBytes */\n      dup6\n        /* \"contracts/RomanToInteger.sol\":1722:1723  1 */\n      0x01\n        /* \"contracts/RomanToInteger.sol\":1718:1719  i */\n      dup6\n        /* \"contracts/RomanToInteger.sol\":1718:1723  i + 1 */\n      tag_23\n      swap2\n      swap1\n      tag_20\n      jump\t// in\n    tag_23:\n        /* \"contracts/RomanToInteger.sol\":1707:1724  romanBytes[i + 1] */\n      dup2\n      mload\n      dup2\n      lt\n      tag_24\n      jumpi\n      tag_25\n      tag_17\n      jump\t// in\n    tag_25:\n    tag_24:\n      0x20\n      add\n      add\n      mload\n      0xf8\n      shr\n      0xf8\n      shl\n        /* \"contracts/RomanToInteger.sol\":1695:1706  charToValue */\n      tag_18\n        /* \"contracts/RomanToInteger.sol\":1695:1725  charToValue(romanBytes[i + 1]) */\n      jump\t// in\n    tag_22:\n        /* \"contracts/RomanToInteger.sol\":1675:1725  uint256 nextValue = charToValue(romanBytes[i + 1]) */\n      swap1\n      pop\n        /* \"contracts/RomanToInteger.sol\":1901:1910  nextValue */\n      dup1\n        /* \"contracts/RomanToInteger.sol\":1886:1898  currentValue */\n      dup3\n        /* \"contracts/RomanToInteger.sol\":1886:1910  currentValue < nextValue */\n      lt\n        /* \"contracts/RomanToInteger.sol\":1882:2259  if (currentValue < nextValue) {... */\n      iszero\n      tag_26\n      jumpi\n        /* \"contracts/RomanToInteger.sol\":1957:1969  currentValue */\n      dup2\n        /* \"contracts/RomanToInteger.sol\":1945:1954  nextValue */\n      dup2\n        /* \"contracts/RomanToInteger.sol\":1945:1969  nextValue - currentValue */\n      tag_27\n      swap2\n      swap1\n      tag_28\n      jump\t// in\n    tag_27:\n        /* \"contracts/RomanToInteger.sol\":1935:1969  result += nextValue - currentValue */\n      dup5\n      tag_29\n      swap2\n      swap1\n      tag_20\n      jump\t// in\n    tag_29:\n      swap4\n      pop\n        /* \"contracts/RomanToInteger.sol\":2086:2089  i++ */\n      dup3\n      dup1\n      tag_30\n      swap1\n      tag_31\n      jump\t// in\n    tag_30:\n      swap4\n      pop\n      pop\n        /* \"contracts/RomanToInteger.sol\":1882:2259  if (currentValue < nextValue) {... */\n      jump(tag_32)\n    tag_26:\n        /* \"contracts/RomanToInteger.sol\":2227:2239  currentValue */\n      dup2\n        /* \"contracts/RomanToInteger.sol\":2217:2239  result += currentValue */\n      dup5\n      tag_33\n      swap2\n      swap1\n      tag_20\n      jump\t// in\n    tag_33:\n      swap4\n      pop\n        /* \"contracts/RomanToInteger.sol\":1882:2259  if (currentValue < nextValue) {... */\n    tag_32:\n        /* \"contracts/RomanToInteger.sol\":1656:2274  {... */\n      pop\n        /* \"contracts/RomanToInteger.sol\":1625:2415  if (i + 1 < romanBytes.length) {... */\n      jump(tag_34)\n    tag_21:\n        /* \"contracts/RomanToInteger.sol\":2387:2399  currentValue */\n      dup1\n        /* \"contracts/RomanToInteger.sol\":2377:2399  result += currentValue */\n      dup4\n      tag_35\n      swap2\n      swap1\n      tag_20\n      jump\t// in\n    tag_35:\n      swap3\n      pop\n        /* \"contracts/RomanToInteger.sol\":1625:2415  if (i + 1 < romanBytes.length) {... */\n    tag_34:\n        /* \"contracts/RomanToInteger.sol\":1410:2426  {... */\n      pop\n        /* \"contracts/RomanToInteger.sol\":1405:1408  i++ */\n      dup1\n      dup1\n      tag_36\n      swap1\n      tag_31\n      jump\t// in\n    tag_36:\n      swap2\n      pop\n      pop\n        /* \"contracts/RomanToInteger.sol\":1362:2426  for (uint256 i = 0; i < romanBytes.length; i++) {... */\n      jump(tag_11)\n    tag_12:\n      pop\n        /* \"contracts/RomanToInteger.sol\":2482:2488  result */\n      dup1\n        /* \"contracts/RomanToInteger.sol\":2475:2488  return result */\n      swap3\n      pop\n      pop\n      pop\n        /* \"contracts/RomanToInteger.sol\":1012:2496  function romanToInt(string memory roman) external pure returns (uint256) {... */\n      swap2\n      swap1\n      pop\n      jump\t// out\n        /* \"contracts/RomanToInteger.sol\":2694:3175  function charToValue(bytes1 char) internal pure returns (uint256) {... */\n    tag_18:\n        /* \"contracts/RomanToInteger.sol\":2751:2758  uint256 */\n      0x00\n        /* \"contracts/RomanToInteger.sol\":2836:2847  char == \"I\" */\n      0x4900000000000000000000000000000000000000000000000000000000000000\n        /* \"contracts/RomanToInteger.sol\":2836:2840  char */\n      dup3\n        /* \"contracts/RomanToInteger.sol\":2836:2847  char == \"I\" */\n      not(0xffffffffffffffffffffffffffffffffffffffffffffffffffffffffffffff)\n      and\n      sub\n        /* \"contracts/RomanToInteger.sol\":2832:2857  if (char == \"I\") return 1 */\n      tag_38\n      jumpi\n        /* \"contracts/RomanToInteger.sol\":2856:2857  1 */\n      0x01\n        /* \"contracts/RomanToInteger.sol\":2849:2857  return 1 */\n      swap1\n      pop\n      jump(tag_37)\n        /* \"contracts/RomanToInteger.sol\":2832:2857  if (char == \"I\") return 1 */\n    tag_38:\n        /* \"contracts/RomanToInteger.sol\":2872:2883  char == \"V\" */\n      0x5600000000000000000000000000000000000000000000000000000000000000\n        /* \"contracts/RomanToInteger.sol\":2872:2876  char */\n      dup3\n        /* \"contracts/RomanToInteger.sol\":2872:2883  char == \"V\" */\n      not(0xffffffffffffffffffffffffffffffffffffffffffffffffffffffffffffff)\n      and\n      sub\n        /* \"contracts/RomanToInteger.sol\":2868:2893  if (char == \"V\") return 5 */\n      tag_39\n      jumpi\n        /* \"contracts/RomanToInteger.sol\":2892:2893  5 */\n      0x05\n        /* \"contracts/RomanToInteger.sol\":2885:2893  return 5 */\n      swap1\n      pop\n      jump(tag_37)\n        /* \"contracts/RomanToInteger.sol\":2868:2893  if (char == \"V\") return 5 */\n    tag_39:\n        /* \"contracts/RomanToInteger.sol\":2908:2919  char == \"X\" */\n      0x5800000000000000000000000000000000000000000000000000000000000000\n        /* \"contracts/RomanToInteger.sol\":2908:2912  char */\n      dup3\n        /* \"contracts/RomanToInteger.sol\":2908:2919  char == \"X\" */\n      not(0xffffffffffffffffffffffffffffffffffffffffffffffffffffffffffffff)\n      and\n      sub\n        /* \"contracts/RomanToInteger.sol\":2904:2930  if (char == \"X\") return 10 */\n      tag_40\n      jumpi\n        /* \"contracts/RomanToInteger.sol\":2928:2930  10 */\n      0x0a\n        /* \"contracts/RomanToInteger.sol\":2921:2930  return 10 */\n      swap1\n      pop\n      jump(tag_37)\n        /* \"contracts/RomanToInteger.sol\":2904:2930  if (char == \"X\") return 10 */\n    tag_40:\n        /* \"contracts/RomanToInteger.sol\":2945:2956  char == \"L\" */\n      0x4c00000000000000000000000000000000000000000000000000000000000000\n        /* \"contracts/RomanToInteger.sol\":2945:2949  char */\n      dup3\n        /* \"contracts/RomanToInteger.sol\":2945:2956  char == \"L\" */\n      not(0xffffffffffffffffffffffffffffffffffffffffffffffffffffffffffffff)\n      and\n      sub\n        /* \"contracts/RomanToInteger.sol\":2941:2967  if (char == \"L\") return 50 */\n      tag_41\n      jumpi\n        /* \"contracts/RomanToInteger.sol\":2965:2967  50 */\n      0x32\n        /* \"contracts/RomanToInteger.sol\":2958:2967  return 50 */\n      swap1\n      pop\n      jump(tag_37)\n        /* \"contracts/RomanToInteger.sol\":2941:2967  if (char == \"L\") return 50 */\n    tag_41:\n        /* \"contracts/RomanToInteger.sol\":2982:2993  char == \"C\" */\n      0x4300000000000000000000000000000000000000000000000000000000000000\n        /* \"contracts/RomanToInteger.sol\":2982:2986  char */\n      dup3\n        /* \"contracts/RomanToInteger.sol\":2982:2993  char == \"C\" */\n      not(0xffffffffffffffffffffffffffffffffffffffffffffffffffffffffffffff)\n      and\n      sub\n        /* \"contracts/RomanToInteger.sol\":2978:3005  if (char == \"C\") return 100 */\n      tag_42\n      jumpi\n        /* \"contracts/RomanToInteger.sol\":3002:3005  100 */\n      0x64\n        /* \"contracts/RomanToInteger.sol\":2995:3005  return 100 */\n      swap1\n      pop\n      jump(tag_37)\n        /* \"contracts/RomanToInteger.sol\":2978:3005  if (char == \"C\") return 100 */\n    tag_42:\n        /* \"contracts/RomanToInteger.sol\":3020:3031  char == \"D\" */\n      0x4400000000000000000000000000000000000000000000000000000000000000\n        /* \"contracts/RomanToInteger.sol\":3020:3024  char */\n      dup3\n        /* \"contracts/RomanToInteger.sol\":3020:3031  char == \"D\" */\n      not(0xffffffffffffffffffffffffffffffffffffffffffffffffffffffffffffff)\n      and\n      sub\n        /* \"contracts/RomanToInteger.sol\":3016:3043  if (char == \"D\") return 500 */\n      tag_43\n      jumpi\n        /* \"contracts/RomanToInteger.sol\":3040:3043  500 */\n      0x01f4\n        /* \"contracts/RomanToInteger.sol\":3033:3043  return 500 */\n      swap1\n      pop\n      jump(tag_37)\n        /* \"contracts/RomanToInteger.sol\":3016:3043  if (char == \"D\") return 500 */\n    tag_43:\n        /* \"contracts/RomanToInteger.sol\":3058:3069  char == \"M\" */\n      0x4d00000000000000000000000000000000000000000000000000000000000000\n        /* \"contracts/RomanToInteger.sol\":3058:3062  char */\n      dup3\n        /* \"contracts/RomanToInteger.sol\":3058:3069  char == \"M\" */\n      not(0xffffffffffffffffffffffffffffffffffffffffffffffffffffffffffffff)\n      and\n      sub\n        /* \"contracts/RomanToInteger.sol\":3054:3082  if (char == \"M\") return 1000 */\n      tag_44\n      jumpi\n        /* \"contracts/RomanToInteger.sol\":3078:3082  1000 */\n      0x03e8\n        /* \"contracts/RomanToInteger.sol\":3071:3082  return 1000 */\n      swap1\n      pop\n      jump(tag_37)\n        /* \"contracts/RomanToInteger.sol\":3054:3082  if (char == \"M\") return 1000 */\n    tag_44:\n        /* \"contracts/RomanToInteger.sol\":3166:3167  0 */\n      0x00\n        /* \"contracts/RomanToInteger.sol\":3159:3167  return 0 */\n      swap1\n      pop\n        /* \"contracts/RomanToInteger.sol\":2694:3175  function charToValue(bytes1 char) internal pure returns (uint256) {... */\n    tag_37:\n      swap2\n      swap1\n      pop\n      jump\t// out\n        /* \"#utility.yul\":7:82   */\n    tag_45:\n        /* \"#utility.yul\":40:46   */\n      0x00\n        /* \"#utility.yul\":73:75   */\n      0x40\n        /* \"#utility.yul\":67:76   */\n      mload\n        /* \"#utility.yul\":57:76   */\n      swap1\n      pop\n        /* \"#utility.yul\":7:82   */\n      swap1\n      jump\t// out\n        /* \"#utility.yul\":88:205   */\n    tag_46:\n        /* \"#utility.yul\":197:198   */\n      0x00\n        /* \"#utility.yul\":194:195   */\n      0x00\n        /* \"#utility.yul\":187:199   */\n      revert\n        /* \"#utility.yul\":211:328   */\n    tag_47:\n        /* \"#utility.yul\":320:321   */\n      0x00\n        /* \"#utility.yul\":317:318   */\n      0x00\n        /* \"#utility.yul\":310:322   */\n      revert\n        /* \"#utility.yul\":334:451   */\n    tag_48:\n        /* \"#utility.yul\":443:444   */\n      0x00\n        /* \"#utility.yul\":440:441   */\n      0x00\n        /* \"#utility.yul\":433:445   */\n      revert\n        /* \"#utility.yul\":457:574   */\n    tag_49:\n        /* \"#utility.yul\":566:567   */\n      0x00\n        /* \"#utility.yul\":563:564   */\n      0x00\n        /* \"#utility.yul\":556:568   */\n      revert\n        /* \"#utility.yul\":580:682   */\n    tag_50:\n        /* \"#utility.yul\":621:627   */\n      0x00\n        /* \"#utility.yul\":672:674   */\n      0x1f\n        /* \"#utility.yul\":668:675   */\n      not\n        /* \"#utility.yul\":663:665   */\n      0x1f\n        /* \"#utility.yul\":656:661   */\n      dup4\n        /* \"#utility.yul\":652:666   */\n      add\n        /* \"#utility.yul\":648:676   */\n      and\n        /* \"#utility.yul\":638:676   */\n      swap1\n      pop\n        /* \"#utility.yul\":580:682   */\n      swap2\n      swap1\n      pop\n      jump\t// out\n        /* \"#utility.yul\":688:868   */\n    tag_51:\n        /* \"#utility.yul\":736:813   */\n      0x4e487b7100000000000000000000000000000000000000000000000000000000\n        /* \"#utility.yul\":733:734   */\n      0x00\n        /* \"#utility.yul\":726:814   */\n      mstore\n        /* \"#utility.yul\":833:837   */\n      0x41\n        /* \"#utility.yul\":830:831   */\n      0x04\n        /* \"#utility.yul\":823:838   */\n      mstore\n        /* \"#utility.yul\":857:861   */\n      0x24\n        /* \"#utility.yul\":854:855   */\n      0x00\n        /* \"#utility.yul\":847:862   */\n      revert\n        /* \"#utility.yul\":874:1155   */\n    tag_52:\n        /* \"#utility.yul\":957:984   */\n      tag_70\n        /* \"#utility.yul\":979:983   */\n      dup3\n        /* \"#utility.yul\":957:984   */\n      tag_50\n      jump\t// in\n    tag_70:\n        /* \"#utility.yul\":949:955   */\n      dup2\n        /* \"#utility.yul\":945:985   */\n      add\n        /* \"#utility.yul\":1087:1093   */\n      dup2\n        /* \"#utility.yul\":1075:1085   */\n      dup2\n        /* \"#utility.yul\":1072:1094   */\n      lt\n        /* \"#utility.yul\":1051:1069   */\n      0xffffffffffffffff\n        /* \"#utility.yul\":1039:1049   */\n      dup3\n        /* \"#utility.yul\":1036:1070   */\n      gt\n        /* \"#utility.yul\":1033:1095   */\n      or\n        /* \"#utility.yul\":1030:1118   */\n      iszero\n      tag_71\n      jumpi\n        /* \"#utility.yul\":1098:1116   */\n      tag_72\n      tag_51\n      jump\t// in\n    tag_72:\n        /* \"#utility.yul\":1030:1118   */\n    tag_71:\n        /* \"#utility.yul\":1138:1148   */\n      dup1\n        /* \"#utility.yul\":1134:1136   */\n      0x40\n        /* \"#utility.yul\":1127:1149   */\n      mstore\n        /* \"#utility.yul\":917:1155   */\n      pop\n        /* \"#utility.yul\":874:1155   */\n      pop\n      pop\n      jump\t// out\n        /* \"#utility.yul\":1161:1290   */\n    tag_53:\n        /* \"#utility.yul\":1195:1201   */\n      0x00\n        /* \"#utility.yul\":1222:1242   */\n      tag_74\n      tag_45\n      jump\t// in\n    tag_74:\n        /* \"#utility.yul\":1212:1242   */\n      swap1\n      pop\n        /* \"#utility.yul\":1251:1284   */\n      tag_75\n        /* \"#utility.yul\":1279:1283   */\n      dup3\n        /* \"#utility.yul\":1271:1277   */\n      dup3\n        /* \"#utility.yul\":1251:1284   */\n      tag_52\n      jump\t// in\n    tag_75:\n        /* \"#utility.yul\":1161:1290   */\n      swap2\n      swap1\n      pop\n      jump\t// out\n        /* \"#utility.yul\":1296:1604   */\n    tag_54:\n        /* \"#utility.yul\":1358:1362   */\n      0x00\n        /* \"#utility.yul\":1448:1466   */\n      0xffffffffffffffff\n        /* \"#utility.yul\":1440:1446   */\n      dup3\n        /* \"#utility.yul\":1437:1467   */\n      gt\n        /* \"#utility.yul\":1434:1490   */\n      iszero\n      tag_77\n      jumpi\n        /* \"#utility.yul\":1470:1488   */\n      tag_78\n      tag_51\n      jump\t// in\n    tag_78:\n        /* \"#utility.yul\":1434:1490   */\n    tag_77:\n        /* \"#utility.yul\":1508:1537   */\n      tag_79\n        /* \"#utility.yul\":1530:1536   */\n      dup3\n        /* \"#utility.yul\":1508:1537   */\n      tag_50\n      jump\t// in\n    tag_79:\n        /* \"#utility.yul\":1500:1537   */\n      swap1\n      pop\n        /* \"#utility.yul\":1592:1596   */\n      0x20\n        /* \"#utility.yul\":1586:1590   */\n      dup2\n        /* \"#utility.yul\":1582:1597   */\n      add\n        /* \"#utility.yul\":1574:1597   */\n      swap1\n      pop\n        /* \"#utility.yul\":1296:1604   */\n      swap2\n      swap1\n      pop\n      jump\t// out\n        /* \"#utility.yul\":1610:1758   */\n    tag_55:\n        /* \"#utility.yul\":1708:1714   */\n      dup3\n        /* \"#utility.yul\":1703:1706   */\n      dup2\n        /* \"#utility.yul\":1698:1701   */\n      dup4\n        /* \"#utility.yul\":1685:1715   */\n      calldatacopy\n        /* \"#utility.yul\":1749:1750   */\n      0x00\n        /* \"#utility.yul\":1740:1746   */\n      dup4\n        /* \"#utility.yul\":1735:1738   */\n      dup4\n        /* \"#utility.yul\":1731:1747   */\n      add\n        /* \"#utility.yul\":1724:1751   */\n      mstore\n        /* \"#utility.yul\":1610:1758   */\n      pop\n      pop\n      pop\n      jump\t// out\n        /* \"#utility.yul\":1764:2189   */\n    tag_56:\n        /* \"#utility.yul\":1842:1847   */\n      0x00\n        /* \"#utility.yul\":1867:1933   */\n      tag_82\n        /* \"#utility.yul\":1883:1932   */\n      tag_83\n        /* \"#utility.yul\":1925:1931   */\n      dup5\n        /* \"#utility.yul\":1883:1932   */\n      tag_54\n      jump\t// in\n    tag_83:\n        /* \"#utility.yul\":1867:1933   */\n      tag_53\n      jump\t// in\n    tag_82:\n        /* \"#utility.yul\":1858:1933   */\n      swap1\n      pop\n        /* \"#utility.yul\":1956:1962   */\n      dup3\n        /* \"#utility.yul\":1949:1954   */\n      dup2\n        /* \"#utility.yul\":1942:1963   */\n      mstore\n        /* \"#utility.yul\":1994:1998   */\n      0x20\n        /* \"#utility.yul\":1987:1992   */\n      dup2\n        /* \"#utility.yul\":1983:1999   */\n      add\n        /* \"#utility.yul\":2032:2035   */\n      dup5\n        /* \"#utility.yul\":2023:2029   */\n      dup5\n        /* \"#utility.yul\":2018:2021   */\n      dup5\n        /* \"#utility.yul\":2014:2030   */\n      add\n        /* \"#utility.yul\":2011:2036   */\n      gt\n        /* \"#utility.yul\":2008:2120   */\n      iszero\n      tag_84\n      jumpi\n        /* \"#utility.yul\":2039:2118   */\n      tag_85\n      tag_49\n      jump\t// in\n    tag_85:\n        /* \"#utility.yul\":2008:2120   */\n    tag_84:\n        /* \"#utility.yul\":2129:2183   */\n      tag_86\n        /* \"#utility.yul\":2176:2182   */\n      dup5\n        /* \"#utility.yul\":2171:2174   */\n      dup3\n        /* \"#utility.yul\":2166:2169   */\n      dup6\n        /* \"#utility.yul\":2129:2183   */\n      tag_55\n      jump\t// in\n    tag_86:\n        /* \"#utility.yul\":1848:2189   */\n      pop\n        /* \"#utility.yul\":1764:2189   */\n      swap4\n      swap3\n      pop\n      pop\n      pop\n      jump\t// out\n        /* \"#utility.yul\":2209:2549   */\n    tag_57:\n        /* \"#utility.yul\":2265:2270   */\n      0x00\n        /* \"#utility.yul\":2314:2317   */\n      dup3\n        /* \"#utility.yul\":2307:2311   */\n      0x1f\n        /* \"#utility.yul\":2299:2305   */\n      dup4\n        /* \"#utility.yul\":2295:2312   */\n      add\n        /* \"#utility.yul\":2291:2318   */\n      slt\n        /* \"#utility.yul\":2281:2403   */\n      tag_88\n      jumpi\n        /* \"#utility.yul\":2322:2401   */\n      tag_89\n      tag_48\n      jump\t// in\n    tag_89:\n        /* \"#utility.yul\":2281:2403   */\n    tag_88:\n        /* \"#utility.yul\":2439:2445   */\n      dup2\n        /* \"#utility.yul\":2426:2446   */\n      calldataload\n        /* \"#utility.yul\":2464:2543   */\n      tag_90\n        /* \"#utility.yul\":2539:2542   */\n      dup5\n        /* \"#utility.yul\":2531:2537   */\n      dup3\n        /* \"#utility.yul\":2524:2528   */\n      0x20\n        /* \"#utility.yul\":2516:2522   */\n      dup7\n        /* \"#utility.yul\":2512:2529   */\n      add\n        /* \"#utility.yul\":2464:2543   */\n      tag_56\n      jump\t// in\n    tag_90:\n        /* \"#utility.yul\":2455:2543   */\n      swap2\n      pop\n        /* \"#utility.yul\":2271:2549   */\n      pop\n        /* \"#utility.yul\":2209:2549   */\n      swap3\n      swap2\n      pop\n      pop\n      jump\t// out\n        /* \"#utility.yul\":2555:3064   */\n    tag_6:\n        /* \"#utility.yul\":2624:2630   */\n      0x00\n        /* \"#utility.yul\":2673:2675   */\n      0x20\n        /* \"#utility.yul\":2661:2670   */\n      dup3\n        /* \"#utility.yul\":2652:2659   */\n      dup5\n        /* \"#utility.yul\":2648:2671   */\n      sub\n        /* \"#utility.yul\":2644:2676   */\n      slt\n        /* \"#utility.yul\":2641:2760   */\n      iszero\n      tag_92\n      jumpi\n        /* \"#utility.yul\":2679:2758   */\n      tag_93\n      tag_46\n      jump\t// in\n    tag_93:\n        /* \"#utility.yul\":2641:2760   */\n    tag_92:\n        /* \"#utility.yul\":2827:2828   */\n      0x00\n        /* \"#utility.yul\":2816:2825   */\n      dup3\n        /* \"#utility.yul\":2812:2829   */\n      add\n        /* \"#utility.yul\":2799:2830   */\n      calldataload\n        /* \"#utility.yul\":2857:2875   */\n      0xffffffffffffffff\n        /* \"#utility.yul\":2849:2855   */\n      dup2\n        /* \"#utility.yul\":2846:2876   */\n      gt\n        /* \"#utility.yul\":2843:2960   */\n      iszero\n      tag_94\n      jumpi\n        /* \"#utility.yul\":2879:2958   */\n      tag_95\n      tag_47\n      jump\t// in\n    tag_95:\n        /* \"#utility.yul\":2843:2960   */\n    tag_94:\n        /* \"#utility.yul\":2984:3047   */\n      tag_96\n        /* \"#utility.yul\":3039:3046   */\n      dup5\n        /* \"#utility.yul\":3030:3036   */\n      dup3\n        /* \"#utility.yul\":3019:3028   */\n      dup6\n        /* \"#utility.yul\":3015:3037   */\n      add\n        /* \"#utility.yul\":2984:3047   */\n      tag_57\n      jump\t// in\n    tag_96:\n        /* \"#utility.yul\":2974:3047   */\n      swap2\n      pop\n        /* \"#utility.yul\":2770:3057   */\n      pop\n        /* \"#utility.yul\":2555:3064   */\n      swap3\n      swap2\n      pop\n      pop\n      jump\t// out\n        /* \"#utility.yul\":3070:3147   */\n    tag_58:\n        /* \"#utility.yul\":3107:3114   */\n      0x00\n        /* \"#utility.yul\":3136:3141   */\n      dup2\n        /* \"#utility.yul\":3125:3141   */\n      swap1\n      pop\n        /* \"#utility.yul\":3070:3147   */\n      swap2\n      swap1\n      pop\n      jump\t// out\n        /* \"#utility.yul\":3153:3271   */\n    tag_59:\n        /* \"#utility.yul\":3240:3264   */\n      tag_99\n        /* \"#utility.yul\":3258:3263   */\n      dup2\n        /* \"#utility.yul\":3240:3264   */\n      tag_58\n      jump\t// in\n    tag_99:\n        /* \"#utility.yul\":3235:3238   */\n      dup3\n        /* \"#utility.yul\":3228:3265   */\n      mstore\n        /* \"#utility.yul\":3153:3271   */\n      pop\n      pop\n      jump\t// out\n        /* \"#utility.yul\":3277:3499   */\n    tag_9:\n        /* \"#utility.yul\":3370:3374   */\n      0x00\n        /* \"#utility.yul\":3408:3410   */\n      0x20\n        /* \"#utility.yul\":3397:3406   */\n      dup3\n        /* \"#utility.yul\":3393:3411   */\n      add\n        /* \"#utility.yul\":3385:3411   */\n      swap1\n      pop\n        /* \"#utility.yul\":3421:3492   */\n      tag_101\n        /* \"#utility.yul\":3489:3490   */\n      0x00\n        /* \"#utility.yul\":3478:3487   */\n      dup4\n        /* \"#utility.yul\":3474:3491   */\n      add\n        /* \"#utility.yul\":3465:3471   */\n      dup5\n        /* \"#utility.yul\":3421:3492   */\n      tag_59\n      jump\t// in\n    tag_101:\n        /* \"#utility.yul\":3277:3499   */\n      swap3\n      swap2\n      pop\n      pop\n      jump\t// out\n        /* \"#utility.yul\":3505:3685   */\n    tag_17:\n        /* \"#utility.yul\":3553:3630   */\n      0x4e487b7100000000000000000000000000000000000000000000000000000000\n        /* \"#utility.yul\":3550:3551   */\n      0x00\n        /* \"#utility.yul\":3543:3631   */\n      mstore\n        /* \"#utility.yul\":3650:3654   */\n      0x32\n        /* \"#utility.yul\":3647:3648   */\n      0x04\n        /* \"#utility.yul\":3640:3655   */\n      mstore\n        /* \"#utility.yul\":3674:3678   */\n      0x24\n        /* \"#utility.yul\":3671:3672   */\n      0x00\n        /* \"#utility.yul\":3664:3679   */\n      revert\n        /* \"#utility.yul\":3691:3871   */\n    tag_60:\n        /* \"#utility.yul\":3739:3816   */\n      0x4e487b7100000000000000000000000000000000000000000000000000000000\n        /* \"#utility.yul\":3736:3737   */\n      0x00\n        /* \"#utility.yul\":3729:3817   */\n      mstore\n        /* \"#utility.yul\":3836:3840   */\n      0x11\n        /* \"#utility.yul\":3833:3834   */\n      0x04\n        /* \"#utility.yul\":3826:3841   */\n      mstore\n        /* \"#utility.yul\":3860:3864   */\n      0x24\n        /* \"#utility.yul\":3857:3858   */\n      0x00\n        /* \"#utility.yul\":3850:3865   */\n      revert\n        /* \"#utility.yul\":3877:4068   */\n    tag_20:\n        /* \"#utility.yul\":3917:3920   */\n      0x00\n        /* \"#utility.yul\":3936:3956   */\n      tag_105\n        /* \"#utility.yul\":3954:3955   */\n      dup3\n        /* \"#utility.yul\":3936:3956   */\n      tag_58\n      jump\t// in\n    tag_105:\n        /* \"#utility.yul\":3931:3956   */\n      swap2\n      pop\n        /* \"#utility.yul\":3970:3990   */\n      tag_106\n        /* \"#utility.yul\":3988:3989   */\n      dup4\n        /* \"#utility.yul\":3970:3990   */\n      tag_58\n      jump\t// in\n    tag_106:\n        /* \"#utility.yul\":3965:3990   */\n      swap3\n      pop\n        /* \"#utility.yul\":4013:4014   */\n      dup3\n        /* \"#utility.yul\":4010:4011   */\n      dup3\n        /* \"#utility.yul\":4006:4015   */\n      add\n        /* \"#utility.yul\":3999:4015   */\n      swap1\n      pop\n        /* \"#utility.yul\":4034:4037   */\n      dup1\n        /* \"#utility.yul\":4031:4032   */\n      dup3\n        /* \"#utility.yul\":4028:4038   */\n      gt\n        /* \"#utility.yul\":4025:4061   */\n      iszero\n      tag_107\n      jumpi\n        /* \"#utility.yul\":4041:4059   */\n      tag_108\n      tag_60\n      jump\t// in\n    tag_108:\n        /* \"#utility.yul\":4025:4061   */\n    tag_107:\n        /* \"#utility.yul\":3877:4068   */\n      swap3\n      swap2\n      pop\n      pop\n      jump\t// out\n        /* \"#utility.yul\":4074:4268   */\n    tag_28:\n        /* \"#utility.yul\":4114:4118   */\n      0x00\n        /* \"#utility.yul\":4134:4154   */\n      tag_110\n        /* \"#utility.yul\":4152:4153   */\n      dup3\n        /* \"#utility.yul\":4134:4154   */\n      tag_58\n      jump\t// in\n    tag_110:\n        /* \"#utility.yul\":4129:4154   */\n      swap2\n      pop\n        /* \"#utility.yul\":4168:4188   */\n      tag_111\n        /* \"#utility.yul\":4186:4187   */\n      dup4\n        /* \"#utility.yul\":4168:4188   */\n      tag_58\n      jump\t// in\n    tag_111:\n        /* \"#utility.yul\":4163:4188   */\n      swap3\n      pop\n        /* \"#utility.yul\":4212:4213   */\n      dup3\n        /* \"#utility.yul\":4209:4210   */\n      dup3\n        /* \"#utility.yul\":4205:4214   */\n      sub\n        /* \"#utility.yul\":4197:4214   */\n      swap1\n      pop\n        /* \"#utility.yul\":4236:4237   */\n      dup2\n        /* \"#utility.yul\":4230:4234   */\n      dup2\n        /* \"#utility.yul\":4227:4238   */\n      gt\n        /* \"#utility.yul\":4224:4261   */\n      iszero\n      tag_112\n      jumpi\n        /* \"#utility.yul\":4241:4259   */\n      tag_113\n      tag_60\n      jump\t// in\n    tag_113:\n        /* \"#utility.yul\":4224:4261   */\n    tag_112:\n        /* \"#utility.yul\":4074:4268   */\n      swap3\n      swap2\n      pop\n      pop\n      jump\t// out\n        /* \"#utility.yul\":4274:4507   */\n    tag_31:\n        /* \"#utility.yul\":4313:4316   */\n      0x00\n        /* \"#utility.yul\":4336:4360   */\n      tag_115\n        /* \"#utility.yul\":4354:4359   */\n      dup3\n        /* \"#utility.yul\":4336:4360   */\n      tag_58\n      jump\t// in\n    tag_115:\n        /* \"#utility.yul\":4327:4360   */\n      swap2\n      pop\n        /* \"#utility.yul\":4382:4448   */\n      0xffffffffffffffffffffffffffffffffffffffffffffffffffffffffffffffff\n        /* \"#utility.yul\":4375:4380   */\n      dup3\n        /* \"#utility.yul\":4372:4449   */\n      sub\n        /* \"#utility.yul\":4369:4472   */\n      tag_116\n      jumpi\n        /* \"#utility.yul\":4452:4470   */\n      tag_117\n      tag_60\n      jump\t// in\n    tag_117:\n        /* \"#utility.yul\":4369:4472   */\n    tag_116:\n        /* \"#utility.yul\":4499:4500   */\n      0x01\n        /* \"#utility.yul\":4492:4497   */\n      dup3\n        /* \"#utility.yul\":4488:4501   */\n      add\n        /* \"#utility.yul\":4481:4501   */\n      swap1\n      pop\n        /* \"#utility.yul\":4274:4507   */\n      swap2\n      swap1\n      pop\n      jump\t// out\n\n    auxdata: 0xa26469706673582212208188a89a9f02234b251eee3e3cb5184adac8448a9d3acd79d224051444e430e264736f6c634300081e0033\n}\n",
				"bytecode": {
					"linkReferences": {},
					"object": "6080604052348015600e575f5ffd5b506106aa8061001c5f395ff3fe608060405234801561000f575f5ffd5b5060043610610029575f3560e01c8063cb159dfe1461002d575b5f5ffd5b610047600480360381019061004291906104f5565b61005d565b6040516100549190610554565b60405180910390f35b5f5f8290505f5f90505f5f90505b8251811015610153575f61009b84838151811061008b5761008a61056d565b5b602001015160f81c60f81b61015e565b905083516001836100ac91906105c7565b1015610130575f6100e5856001856100c491906105c7565b815181106100d5576100d461056d565b5b602001015160f81c60f81b61015e565b90508082101561011b5781816100fb91906105fa565b8461010691906105c7565b935082806101139061062d565b93505061012a565b818461012791906105c7565b93505b5061013f565b808361013c91906105c7565b92505b50808061014b9061062d565b91505061006b565b508092505050919050565b5f7f4900000000000000000000000000000000000000000000000000000000000000827effffffffffffffffffffffffffffffffffffffffffffffffffffffffffffff1916036101b157600190506103a3565b7f5600000000000000000000000000000000000000000000000000000000000000827effffffffffffffffffffffffffffffffffffffffffffffffffffffffffffff19160361020357600590506103a3565b7f5800000000000000000000000000000000000000000000000000000000000000827effffffffffffffffffffffffffffffffffffffffffffffffffffffffffffff19160361025557600a90506103a3565b7f4c00000000000000000000000000000000000000000000000000000000000000827effffffffffffffffffffffffffffffffffffffffffffffffffffffffffffff1916036102a757603290506103a3565b7f4300000000000000000000000000000000000000000000000000000000000000827effffffffffffffffffffffffffffffffffffffffffffffffffffffffffffff1916036102f957606490506103a3565b7f4400000000000000000000000000000000000000000000000000000000000000827effffffffffffffffffffffffffffffffffffffffffffffffffffffffffffff19160361034c576101f490506103a3565b7f4d00000000000000000000000000000000000000000000000000000000000000827effffffffffffffffffffffffffffffffffffffffffffffffffffffffffffff19160361039f576103e890506103a3565b5f90505b919050565b5f604051905090565b5f5ffd5b5f5ffd5b5f5ffd5b5f5ffd5b5f601f19601f8301169050919050565b7f4e487b71000000000000000000000000000000000000000000000000000000005f52604160045260245ffd5b610407826103c1565b810181811067ffffffffffffffff82111715610426576104256103d1565b5b80604052505050565b5f6104386103a8565b905061044482826103fe565b919050565b5f67ffffffffffffffff821115610463576104626103d1565b5b61046c826103c1565b9050602081019050919050565b828183375f83830152505050565b5f61049961049484610449565b61042f565b9050828152602081018484840111156104b5576104b46103bd565b5b6104c0848285610479565b509392505050565b5f82601f8301126104dc576104db6103b9565b5b81356104ec848260208601610487565b91505092915050565b5f6020828403121561050a576105096103b1565b5b5f82013567ffffffffffffffff811115610527576105266103b5565b5b610533848285016104c8565b91505092915050565b5f819050919050565b61054e8161053c565b82525050565b5f6020820190506105675f830184610545565b92915050565b7f4e487b71000000000000000000000000000000000000000000000000000000005f52603260045260245ffd5b7f4e487b71000000000000000000000000000000000000000000000000000000005f52601160045260245ffd5b5f6105d18261053c565b91506105dc8361053c565b92508282019050808211156105f4576105f361059a565b5b92915050565b5f6106048261053c565b915061060f8361053c565b92508282039050818111156106275761062661059a565b5b92915050565b5f6106378261053c565b91507fffffffffffffffffffffffffffffffffffffffffffffffffffffffffffffffff82036106695761066861059a565b5b60018201905091905056fea26469706673582212208188a89a9f02234b251eee3e3cb5184adac8448a9d3acd79d224051444e430e264736f6c634300081e0033",
					"opcodes": "PUSH1 0x80 PUSH1 0x40 MSTORE CALLVALUE DUP1 ISZERO PUSH1 0xE JUMPI PUSH0 PUSH0 REVERT JUMPDEST POP PUSH2 0x6AA DUP1 PUSH2 0x1C PUSH0 CODECOPY PUSH0 RETURN INVALID PUSH1 0x80 PUSH1 0x40 MSTORE CALLVALUE DUP1 ISZERO PUSH2 0xF JUMPI PUSH0 PUSH0 REVERT JUMPDEST POP PUSH1 0x4 CALLDATASIZE LT PUSH2 0x29 JUMPI PUSH0 CALLDATALOAD PUSH1 0xE0 SHR DUP1 PUSH4 0xCB159DFE EQ PUSH2 0x2D JUMPI JUMPDEST PUSH0 PUSH0 REVERT JUMPDEST PUSH2 0x47 PUSH1 0x4 DUP1 CALLDATASIZE SUB DUP2 ADD SWAP1 PUSH2 0x42 SWAP2 SWAP1 PUSH2 0x4F5 JUMP JUMPDEST PUSH2 0x5D JUMP JUMPDEST PUSH1 0x40 MLOAD PUSH2 0x54 SWAP2 SWAP1 PUSH2 0x554 JUMP JUMPDEST PUSH1 0x40 MLOAD DUP1 SWAP2 SUB SWAP1 RETURN JUMPDEST PUSH0 PUSH0 DUP3 SWAP1 POP PUSH0 PUSH0 SWAP1 POP PUSH0 PUSH0 SWAP1 POP JUMPDEST DUP3 MLOAD DUP2 LT ISZERO PUSH2 0x153 JUMPI PUSH0 PUSH2 0x9B DUP5 DUP4 DUP2 MLOAD DUP2 LT PUSH2 0x8B JUMPI PUSH2 0x8A PUSH2 0x56D JUMP JUMPDEST JUMPDEST PUSH1 0x20 ADD ADD MLOAD PUSH1 0xF8 SHR PUSH1 0xF8 SHL PUSH2 0x15E JUMP JUMPDEST SWAP1 POP DUP4 MLOAD PUSH1 0x1 DUP4 PUSH2 0xAC SWAP2 SWAP1 PUSH2 0x5C7 JUMP JUMPDEST LT ISZERO PUSH2 0x130 JUMPI PUSH0 PUSH2 0xE5 DUP6 PUSH1 0x1 DUP6 PUSH2 0xC4 SWAP2 SWAP1 PUSH2 0x5C7 JUMP JUMPDEST DUP2 MLOAD DUP2 LT PUSH2 0xD5 JUMPI PUSH2 0xD4 PUSH2 0x56D JUMP JUMPDEST JUMPDEST PUSH1 0x20 ADD ADD MLOAD PUSH1 0xF8 SHR PUSH1 0xF8 SHL PUSH2 0x15E JUMP JUMPDEST SWAP1 POP DUP1 DUP3 LT ISZERO PUSH2 0x11B JUMPI DUP2 DUP2 PUSH2 0xFB SWAP2 SWAP1 PUSH2 0x5FA JUMP JUMPDEST DUP5 PUSH2 0x106 SWAP2 SWAP1 PUSH2 0x5C7 JUMP JUMPDEST SWAP4 POP DUP3 DUP1 PUSH2 0x113 SWAP1 PUSH2 0x62D JUMP JUMPDEST SWAP4 POP POP PUSH2 0x12A JUMP JUMPDEST DUP2 DUP5 PUSH2 0x127 SWAP2 SWAP1 PUSH2 0x5C7 JUMP JUMPDEST SWAP4 POP JUMPDEST POP PUSH2 0x13F JUMP JUMPDEST DUP1 DUP4 PUSH2 0x13C SWAP2 SWAP1 PUSH2 0x5C7 JUMP JUMPDEST SWAP3 POP JUMPDEST POP DUP1 DUP1 PUSH2 0x14B SWAP1 PUSH2 0x62D JUMP JUMPDEST SWAP2 POP POP PUSH2 0x6B JUMP JUMPDEST POP DUP1 SWAP3 POP POP POP SWAP2 SWAP1 POP JUMP JUMPDEST PUSH0 PUSH32 0x4900000000000000000000000000000000000000000000000000000000000000 DUP3 PUSH31 0xFFFFFFFFFFFFFFFFFFFFFFFFFFFFFFFFFFFFFFFFFFFFFFFFFFFFFFFFFFFFFF NOT AND SUB PUSH2 0x1B1 JUMPI PUSH1 0x1 SWAP1 POP PUSH2 0x3A3 JUMP JUMPDEST PUSH32 0x5600000000000000000000000000000000000000000000000000000000000000 DUP3 PUSH31 0xFFFFFFFFFFFFFFFFFFFFFFFFFFFFFFFFFFFFFFFFFFFFFFFFFFFFFFFFFFFFFF NOT AND SUB PUSH2 0x203 JUMPI PUSH1 0x5 SWAP1 POP PUSH2 0x3A3 JUMP JUMPDEST PUSH32 0x5800000000000000000000000000000000000000000000000000000000000000 DUP3 PUSH31 0xFFFFFFFFFFFFFFFFFFFFFFFFFFFFFFFFFFFFFFFFFFFFFFFFFFFFFFFFFFFFFF NOT AND SUB PUSH2 0x255 JUMPI PUSH1 0xA SWAP1 POP PUSH2 0x3A3 JUMP JUMPDEST PUSH32 0x4C00000000000000000000000000000000000000000000000000000000000000 DUP3 PUSH31 0xFFFFFFFFFFFFFFFFFFFFFFFFFFFFFFFFFFFFFFFFFFFFFFFFFFFFFFFFFFFFFF NOT AND SUB PUSH2 0x2A7 JUMPI PUSH1 0x32 SWAP1 POP PUSH2 0x3A3 JUMP JUMPDEST PUSH32 0x4300000000000000000000000000000000000000000000000000000000000000 DUP3 PUSH31 0xFFFFFFFFFFFFFFFFFFFFFFFFFFFFFFFFFFFFFFFFFFFFFFFFFFFFFFFFFFFFFF NOT AND SUB PUSH2 0x2F9 JUMPI PUSH1 0x64 SWAP1 POP PUSH2 0x3A3 JUMP JUMPDEST PUSH32 0x4400000000000000000000000000000000000000000000000000000000000000 DUP3 PUSH31 0xFFFFFFFFFFFFFFFFFFFFFFFFFFFFFFFFFFFFFFFFFFFFFFFFFFFFFFFFFFFFFF NOT AND SUB PUSH2 0x34C JUMPI PUSH2 0x1F4 SWAP1 POP PUSH2 0x3A3 JUMP JUMPDEST PUSH32 0x4D00000000000000000000000000000000000000000000000000000000000000 DUP3 PUSH31 0xFFFFFFFFFFFFFFFFFFFFFFFFFFFFFFFFFFFFFFFFFFFFFFFFFFFFFFFFFFFFFF NOT AND SUB PUSH2 0x39F JUMPI PUSH2 0x3E8 SWAP1 POP PUSH2 0x3A3 JUMP JUMPDEST PUSH0 SWAP1 POP JUMPDEST SWAP2 SWAP1 POP JUMP JUMPDEST PUSH0 PUSH1 0x40 MLOAD SWAP1 POP SWAP1 JUMP JUMPDEST PUSH0 PUSH0 REVERT JUMPDEST PUSH0 PUSH0 REVERT JUMPDEST PUSH0 PUSH0 REVERT JUMPDEST PUSH0 PUSH0 REVERT JUMPDEST PUSH0 PUSH1 0x1F NOT PUSH1 0x1F DUP4 ADD AND SWAP1 POP SWAP2 SWAP1 POP JUMP JUMPDEST PUSH32 0x4E487B7100000000000000000000000000000000000000000000000000000000 PUSH0 MSTORE PUSH1 0x41 PUSH1 0x4 MSTORE PUSH1 0x24 PUSH0 REVERT JUMPDEST PUSH2 0x407 DUP3 PUSH2 0x3C1 JUMP JUMPDEST DUP2 ADD DUP2 DUP2 LT PUSH8 0xFFFFFFFFFFFFFFFF DUP3 GT OR ISZERO PUSH2 0x426 JUMPI PUSH2 0x425 PUSH2 0x3D1 JUMP JUMPDEST JUMPDEST DUP1 PUSH1 0x40 MSTORE POP POP POP JUMP JUMPDEST PUSH0 PUSH2 0x438 PUSH2 0x3A8 JUMP JUMPDEST SWAP1 POP PUSH2 0x444 DUP3 DUP3 PUSH2 0x3FE JUMP JUMPDEST SWAP2 SWAP1 POP JUMP JUMPDEST PUSH0 PUSH8 0xFFFFFFFFFFFFFFFF DUP3 GT ISZERO PUSH2 0x463 JUMPI PUSH2 0x462 PUSH2 0x3D1 JUMP JUMPDEST JUMPDEST PUSH2 0x46C DUP3 PUSH2 0x3C1 JUMP JUMPDEST SWAP1 POP PUSH1 0x20 DUP2 ADD SWAP1 POP SWAP2 SWAP1 POP JUMP JUMPDEST DUP3 DUP2 DUP4 CALLDATACOPY PUSH0 DUP4 DUP4 ADD MSTORE POP POP POP JUMP JUMPDEST PUSH0 PUSH2 0x499 PUSH2 0x494 DUP5 PUSH2 0x449 JUMP JUMPDEST PUSH2 0x42F JUMP JUMPDEST SWAP1 POP DUP3 DUP2 MSTORE PUSH1 0x20 DUP2 ADD DUP5 DUP5 DUP5 ADD GT ISZERO PUSH2 0x4B5 JUMPI PUSH2 0x4B4 PUSH2 0x3BD JUMP JUMPDEST JUMPDEST PUSH2 0x4C0 DUP5 DUP3 DUP6 PUSH2 0x479 JUMP JUMPDEST POP SWAP4 SWAP3 POP POP POP JUMP JUMPDEST PUSH0 DUP3 PUSH1 0x1F DUP4 ADD SLT PUSH2 0x4DC JUMPI PUSH2 0x4DB PUSH2 0x3B9 JUMP JUMPDEST JUMPDEST DUP2 CALLDATALOAD PUSH2 0x4EC DUP5 DUP3 PUSH1 0x20 DUP7 ADD PUSH2 0x487 JUMP JUMPDEST SWAP2 POP POP SWAP3 SWAP2 POP POP JUMP JUMPDEST PUSH0 PUSH1 0x20 DUP3 DUP5 SUB SLT ISZERO PUSH2 0x50A JUMPI PUSH2 0x509 PUSH2 0x3B1 JUMP JUMPDEST JUMPDEST PUSH0 DUP3 ADD CALLDATALOAD PUSH8 0xFFFFFFFFFFFFFFFF DUP2 GT ISZERO PUSH2 0x527 JUMPI PUSH2 0x526 PUSH2 0x3B5 JUMP JUMPDEST JUMPDEST PUSH2 0x533 DUP5 DUP3 DUP6 ADD PUSH2 0x4C8 JUMP JUMPDEST SWAP2 POP POP SWAP3 SWAP2 POP POP JUMP JUMPDEST PUSH0 DUP2 SWAP1 POP SWAP2 SWAP1 POP JUMP JUMPDEST PUSH2 0x54E DUP2 PUSH2 0x53C JUMP JUMPDEST DUP3 MSTORE POP POP JUMP JUMPDEST PUSH0 PUSH1 0x20 DUP3 ADD SWAP1 POP PUSH2 0x567 PUSH0 DUP4 ADD DUP5 PUSH2 0x545 JUMP JUMPDEST SWAP3 SWAP2 POP POP JUMP JUMPDEST PUSH32 0x4E487B7100000000000000000000000000000000000000000000000000000000 PUSH0 MSTORE PUSH1 0x32 PUSH1 0x4 MSTORE PUSH1 0x24 PUSH0 REVERT JUMPDEST PUSH32 0x4E487B7100000000000000000000000000000000000000000000000000000000 PUSH0 MSTORE PUSH1 0x11 PUSH1 0x4 MSTORE PUSH1 0x24 PUSH0 REVERT JUMPDEST PUSH0 PUSH2 0x5D1 DUP3 PUSH2 0x53C JUMP JUMPDEST SWAP2 POP PUSH2 0x5DC DUP4 PUSH2 0x53C JUMP JUMPDEST SWAP3 POP DUP3 DUP3 ADD SWAP1 POP DUP1 DUP3 GT ISZERO PUSH2 0x5F4 JUMPI PUSH2 0x5F3 PUSH2 0x59A JUMP JUMPDEST JUMPDEST SWAP3 SWAP2 POP POP JUMP JUMPDEST PUSH0 PUSH2 0x604 DUP3 PUSH2 0x53C JUMP JUMPDEST SWAP2 POP PUSH2 0x60F DUP4 PUSH2 0x53C JUMP JUMPDEST SWAP3 POP DUP3 DUP3 SUB SWAP1 POP DUP2 DUP2 GT ISZERO PUSH2 0x627 JUMPI PUSH2 0x626 PUSH2 0x59A JUMP JUMPDEST JUMPDEST SWAP3 SWAP2 POP POP JUMP JUMPDEST PUSH0 PUSH2 0x637 DUP3 PUSH2 0x53C JUMP JUMPDEST SWAP2 POP PUSH32 0xFFFFFFFFFFFFFFFFFFFFFFFFFFFFFFFFFFFFFFFFFFFFFFFFFFFFFFFFFFFFFFFF DUP3 SUB PUSH2 0x669 JUMPI PUSH2 0x668 PUSH2 0x59A JUMP JUMPDEST JUMPDEST PUSH1 0x1 DUP3 ADD SWAP1 POP SWAP2 SWAP1 POP JUMP INVALID LOG2 PUSH5 0x6970667358 0x22 SLT KECCAK256 DUP2 DUP9 0xA8 SWAP11 SWAP16 MUL 0x23 0x4B 0x25 0x1E RETURNCONTRACT 0x3E EXTCODECOPY 0xB5 XOR BLOBBASEFEE 0xDA 0xC8 PREVRANDAO DUP11 SWAP14 GASPRICE 0xCD PUSH26 0xD224051444E430E264736F6C634300081E003300000000000000 "
				},
				"gasEstimates": {
					"creation": {
						"codeDepositCost": "341200",
						"executionCost": "378",
						"totalCost": "341578"
					},
					"external": {
						"romanToInt(string)": "infinite"
					},
					"internal": {
						"charToValue(bytes1)": "262"
					}
				},
				"methodIdentifiers": {
					"romanToInt(string)": "cb159dfe"
				}
			},
			"storageLayout": {
				"storage": [],
				"types": null
			},
			"userdoc": {
				"kind": "user",
				"methods": {},
				"version": 1
			}
		}
	}
}